:0400000049EF03F0D1
:08000800046ED8CF05F0E0CF33
:1000100006F00001E9CF0CF0EACF07F0E1CF08F0DD
:10002000E2CF09F0D9CF0AF0DACF0BF0F3CF12F01C
:10003000F4CF13F0FACF14F0F5CF15F0F6CF16F099
:10004000F7CF17F000C00EF001C00FF002C010F0A3
:1000500003C011F09DA230EF00F09EB25DEF00F002
:100060009DA636EF00F09EB668EF01F00EC000F0DE
:100070000FC001F010C002F011C003F00CC0E9FF86
:1000800007C0EAFF078E08C0E1FF09C0E2FF0AC00F
:10009000D9FF0BC0DAFF12C0F3FF13C0F4FF14C086
:1000A000FAFF15C0F5FF16C0F6FF17C0F7FF0450A2
:1000B00006C0E0FF05C0D8FF100085859E9236EF90
:1000C00000F0A351200DF350036A300F016E000EB3
:1000D000032201C0A7F003C0A8F0A56BA46BA66B18
:1000E000A6510F0811E3D890A635036AA725E96E3B
:1000F000A8510320EA6EECCF03F0ED52EF50A42795
:100100000350A523A62BECD7080EA425A96F000E3B
:10011000A521AA6FAA31036EA931026E0332023201
:1001200003320232033202320F0E031602C001F014
:1001300003C002F01200640E826FA25133E0010A84
:1001400041E0030A43E0010A51E0070A54E0010AD2
:100150005BE0030A5FE0010A67E00F0AD8B469D0E8
:10016000010AD8B46BD0290AD8B46DD0010AD8B42A
:100170006FD0030AD8B471D0010AD8B473D0070A7B
:10018000D8B475D0010AD8B477D0030AD8B479D0DE
:10019000010AD8B47BD00F0AD8B47DD0010AD8B4F4
:1001A0007FD084D0D8907035036A300FE96E000E8E
:1001B0000320EA6EECCF03F0ED52EFCF01F003C065
:1001C00002F079D0A36B7DDF025075D0D8907035E6
:1001D000036A500FE96E000E0320EA6EECCF03F0C5
:1001E000ED52EFCF01F003C002F065D0010EA36F16
:1001F00068DF025060D0928A000E80AA010E036A66
:10020000016E03C002F057D0036A81C001F003C041
:1002100002F051D072C003F07151712BD8B4722B1F
:10022000016E03C002F047D075C001F076C002F045
:1002300042D073C001F074C002F03DD078C001F02C
:1002400079C002F038D0340E016E120E026E33D037
:100250001BC001F01CC002F02ED0500E016E000E2B
:10026000026E29D05A0E016E000E026E24D0500E7E
:10027000016E000E026E1FD0030E016E000E026EA4
:100280001AD01DC001F01EC002F015D020C001F030
:1002900021C002F010D022C001F023C002F00BD028
:1002A000036A24C001F003C002F005D0036AA2C0B3
:1002B00001F003C002F095EF01F0C950A2C0C9FFE0
:1002C000C6889E96C7B0FED7016AC6B8012A12003A
:1002D000C7BA03D0896BC7B4898F8951892BA06FA6
:1002E000A051800818E3A051800803E1C9CF9FF016
:1002F00006D0C69C9EA6FED7C950C6889F6FA02D6B
:1003000003D09FC086F007D0A051010804E2A0519D
:10031000800801E0862BA0517F0817E286B10FD03C
:10032000D8908631A16FA26F06D702C088F001C0B5
:1003300087F088C0A1F088C0A2F0BFDF05D087C0D9
:10034000A1F087C0A2F0B9DF862B796B786B9E96FF
:1003500036EF00F02320707A506F77657249324390
:100360002025730D0A0030392D4170722D3139006E
:10037000700ED36E9B9C9B9EC050C00B0509C06E37
:10038000C08EC280140E7E6EC190C192C194C1967F
:10039000000E7F6E2F0E926E700E936E010E946E95
:1003A0002B0E776EF19E786A826B846B020E836FE0
:1003B000859185938595726B716B746B736B766B9E
:1003C000756B706B776B796B786B816B2CC07CF085
:1003D0002BC07BF028C07EF027C07DF0806B7F6B48
:1003E000000E0609CA6EF90ECB6E9D827CEF03F0FB
:1003F000EA6A900EE96EEF500EE0050E016E006A9B
:10040000002EFED7012EFBD72E0E006E002EFED73B
:1004100000D0EF2EF2D71200996B98C003F09751DD
:10042000D8B4980797079A6F03C09BF09A5302E1DC
:100430009B5330E096C003F09551E96E03C0EAFF8C
:100440009451036E9351932BD8B4942B9C6F03C09B
:100450009DF0F2CF9EF0F29E9CC0A9FFA69CA69EA6
:10046000A680A8509EBFF28EEF6E96C003F0955105
:10047000E96E03C0EAFFEFCF9AF099C09BF09AC0F3
:100480009CF09B519C19016E01C099F0952BD8B43A
:10049000962BC3D799C001F073EF02F0960E826FCE
:1004A000500E1A6E260E1C6E930E1B6E1E6A140ED4
:1004B0001D6E1F6A170E216E8E0E206E236A020EAD
:1004C000226E246A010E2F6E1200926B1A0E916F2B
:1004D000946B020E936F92C096F091C095F0986B5A
:1004E000160E976F99D701C090F0F2CF91F0F29E5F
:1004F000A96AA69CA69EA680A85091BFF28E905D88
:1005000001E0CCDF92EF03F0702B70510F0801E295
:10051000706B100E016EC250C30B0110C26ED890EA
:100520007035036A300FE96E000E0320EA6EC28256
:10053000C2B2FED7C3CFEFFFC4CFECFF080E016EEF
:10054000C250C30B0110C26E010E906F51DFD890E4
:100550007035036A500FE96E000E0320EA6EC28206
:10056000C2B2FED7C3CFEFFFC4CFECFF1200090029
:10057000F6CF91F0F7CF92F0F5509EA8FED7AD6E72
:1005800091C0F6FF92C0F7FF902FF1D7A7EF03F0CD
:100590000900F5520DE0F6CF90F0F7CF91F0F5504D
:1005A0009EA8FED7AD6E90C0F6FF91C0F7FFF0D7C2
:1005B000ACEF03F08595928A80BA02D0010E816F6C
:1005C000825303E1949C8B9C03D0949C8B8C820778
:1005D000753D03D0763D01D003D0752BD8B4762B72
:1005E0008D2BD8B48E2B8D51E80840E18E51030835
:1005F0003DE18E6B8D6B783D03D0793D01D003D00A
:10060000782BD8B4792B205202E121520FE02150EF
:10061000795D0CE303E17851205C08E2835306E145
:10062000845304E123C084F022C083F0835307E1A4
:10063000845305E194988B88949A8B8A0AD08351CD
:10064000D8B484078307835304E1845302E1796BB0
:10065000786B8A2B8A513C0809E18A6B733D03D081
:10066000743D01D003D0732BD8B4742B85A303D071
:1006700085938C6B8B6B8B2BD8B48C2B1D508B5D27
:1006800006E11E508C5D03E18C6B8B6B8581B9EFAD
:1006900003F0F86AD09E078EEA6AE96A938C938821
:1006A000340EC86E360EC66EC580196AB886A00EA6
:1006B000AF6E010EB06EA60EAC6E900EAB6E030E5A
:1006C000896F8A6B8C6B8B6B8E6B8D6B000E7E6E65
:1006D000C190C192C194C1967F6E6B6A6D6A876B3F
:1006E000886BD0500F0BD0A8000ED080D082D0885D
:1006F000D886D8888F6F3CD694988B98949A8B9A8A
:100700008F6B8F5104080DE30400949C8B8CC80EF2
:10071000906F6EDE949C8B9CC80E906F69DE8F2B61
:10072000F0D7D3D6BBDEF40E826FC00EF2128F6B01
:100730008F511D0803E3E8DE8F2BFAD724C07AF02F
:10074000540EF66E030EF76E0D0E906F10D7660EF8
:10075000F66E030EF76E1CD70D0E9EA8FED7AD6E7B
:100760000A0E9EA8FED7AD6E9D86040085A501D019
:0E07700021D785A102D08591C7DEF7D7FFD72C
:020000040030CA
:0E000000002819180000090003C003E00340A7
:00000001FF
;PIC18F14K22
;CRC=86FC  CREATED="09-Apr-19 16:00"
