:0400000064EF03F0B6
:08000800046ED8CF05F0E0CF33
:1000100006F00001E9CF0CF0EACF07F0E1CF08F0DD
:10002000E2CF09F0D9CF0AF0DACF0BF0F3CF12F01C
:10003000F4CF13F0FACF14F0F5CF15F0F6CF16F099
:10004000F7CF17F000C00EF001C00FF002C010F0A3
:1000500003C011F09DA230EF00F09EB26CEF00F0F3
:100060009DA636EF00F09EB678EF01F00EC000F0CE
:100070000FC001F010C002F011C003F00CC0E9FF86
:1000800007C0EAFF078E08C0E1FF09C0E2FF0AC00F
:10009000D9FF0BC0DAFF12C0F3FF13C0F4FF14C086
:1000A000FAFF15C0F5FF16C0F6FF17C0F7FF0450A2
:1000B00006C0E0FF05C0D8FF1000F76ACA0FF66E51
:1000C000000EF7220900F550120068656C6C6F2C69
:1000D00020776F726C64210085859E9236EF00F068
:1000E000B351200DF350036A300F016E000E03224E
:1000F00001C0B7F003C0B8F0B56BB46BB66BB651C6
:100100000F0811E3D890B635036AB725E96EB851E8
:100110000320EA6EECCF03F0ED52EF50B42703500A
:10012000B523B62BECD7080EB425B96F000EB52158
:10013000BA6FBA31036EB931026E03320232033242
:100140000232033202320F0E031602C001F003C066
:1001500002F01200640E826FB25133E0010A41E0F6
:10016000030A43E0010A51E0070A54E0010A5BE098
:10017000030A5FE0010A67E00F0AD8B469D0010AF8
:10018000D8B46BD0290AD8B46DD0010AD8B470D0D5
:10019000030AD8B472D0010AD8B474D0070AD8B40C
:1001A00076D0010AD8B478D0030AD8B47AD0010A3C
:1001B000D8B47CD00F0AD8B47ED0010AD8B480D08D
:1001C00085D0D8907035036A300FE96E000E032099
:1001D000EA6EECCF03F0ED52EFCF01F003C002F076
:1001E0007AD0B36B7DDF025076D0D8907035036A39
:1001F000500FE96E000E0320EA6EECCF03F0ED52D3
:10020000EFCF01F003C002F066D0010EB36F68DFDC
:10021000025061D0928A000E80AA010E036A016E1C
:1002200003C002F058D0036A81C001F003C002F09D
:1002300052D072C003F07151712BD8B4722B016E81
:1002400003C002F048D075C001F076C002F043D080
:1002500073C001F074C002F03ED078C001F079C0E4
:1002600002F039D0036A1AC001F003C002F033D0A3
:100270001BC001F01CC002F02ED0500E016E000E0B
:10028000026E29D05A0E016E000E026E24D0500E5E
:10029000016E000E026E1FD0030E016E000E026E84
:1002A0001AD01DC001F01EC002F015D020C001F010
:1002B00021C002F010D022C001F023C002F00BD008
:1002C000036A24C001F003C002F005D0036AB2C083
:1002D00001F003C002F0AEEF01F0C950B2C0C9FF97
:1002E000C6889E96C7B0FED7016AC6B8012A12001A
:1002F000C7BA03D0996BC7B4998F9951992BB06F36
:10030000B051800821E3B051800803E1C9CFAFF0BC
:1003100006D0C69C9EA6FED7C950C688AF6FB02D2A
:1003200003D0AFC086F010D0B05101080DE2B0513B
:1003300080080AE08651862B036A870FE96E000E5B
:100340000320EA6EAFC0EFFFB0517F0817E286B11D
:100350000FD0D8908631B16FB26FFCD602C098F042
:1003600001C097F098C0B1F098C0B2F0B6DF05D0E8
:1003700097C0B1F097C0B2F0B0DF862B796B786B85
:100380009E9636EF00F02320707A506F77657249A1
:1003900032432025730D0A0031342D4D61722D3109
:1003A0003900700ED36E9B9C9B9EC050C00B0509FC
:1003B000C06EC08EC280140E7E6EC190C192C19478
:1003C000C196000E7F6E2F0E926E700E936E010E10
:1003D000946E2B0E776EF19E786A826B846B020EA0
:1003E000836F859185938595726B716B746B736B5D
:1003F000766B756B706B776B796B786B816B2CC0E0
:100400007CF02BC07BF028C07EF027C07DF0806B95
:100410007F6B000E0609CA6EF90ECB6E9D8297EFB8
:1004200003F0EA6AA00EE96EEF500EE0050E016ED1
:10043000006A002EFED7012EFBD72E0E006E002E76
:10044000FED700D0EF2EF2D71200A96BA8C003F0A0
:10045000A751D8B4A807A707AA6F03C0ABF0AA5347
:1004600002E1AB5330E0A6C003F0A551E96E03C032
:10047000EAFFA451036EA351A32BD8B4A42BAC6FF5
:1004800003C0ADF0F2CFAEF0F29EACC0A9FFA69CC7
:10049000A69EA680A850AEBFF28EEF6EA6C003F057
:1004A000A551E96E03C0EAFFEFCFAAF0A9C0ABF0F7
:1004B000AAC0ACF0AB51AC19016E01C0A9F0A52BDC
:1004C000D8B4A62BC3D7A9C001F08CEF02F0960ECA
:1004D000826F500E1A6E260E1C6E930E1B6E1E6AD5
:1004E000140E1D6E1F6A170E216E8E0E206E236A6B
:1004F000020E226E246A010E2F6E1200A26B1A0EDB
:10050000A16FA46B020EA36FA2C0A6F0A1C0A5F0BC
:10051000A86B160EA76F99D701C0A0F0F2CFA1F07B
:10052000F29EA96AA69CA69EA680A850A1BFF28EA4
:10053000A05D01E0CCDFB8EF03F0702B70510F0825
:1005400001E2706B900EBA6E100E016EC250C30BBA
:100550000110C26ED8907035036A300FE96E000E3C
:100560000320EA6EC282C2B2FED7C3CFEFFFC4CF70
:10057000ECFF3C0E016EC250C30B0110C26E010EA7
:10058000A06F4FDFD8907035036A500FE96E000EF0
:100590000320EA6EC282C2B2FED7C3CFEFFFC4CF40
:1005A000ECFF12000900F6CFA1F0F7CFA2F0F55052
:1005B0009EA8FED7AD6EA1C0F6FFA2C0F7FFA02F88
:1005C000F1D7D1EF03F00900F5520DE0F6CFA0F01E
:1005D000F7CFA1F0F5509EA8FED7AD6EA0C0F6FFF4
:1005E000A1C0F7FFF0D7D6EF03F08595928A80BAC5
:1005F00002D0010E816F825303E1949C8B9C03D047
:10060000949C8B8C8207753D03D0763D01D003D03E
:10061000752BD8B4762B9D2BD8B49E2B9D51E80812
:1006200040E19E5103083DE19E6B9D6B783D03D0F8
:10063000793D01D003D0782BD8B4792B205202E138
:1006400021520FE02150795D0CE303E17851205CE9
:1006500008E2835306E1845304E123C084F022C0FE
:1006600083F0835307E1845305E194988B88949A2F
:100670008B8A0AD08351D8B484078307835304E15B
:10068000845302E1796B786B9A2B9A513C0809E10B
:100690009A6B733D03D0743D01D003D0732BD8B453
:1006A000742B85A303D085939C6B9B6B9B2BD8B439
:1006B0009C2B1D509B5D06E11E509C5D03E19C6BD5
:1006C0009B6B8581E3EF03F0F86AD09E078EEA6AA0
:1006D000E96A938C9388340EC86E360EC66EC58058
:1006E000196AB886A00EAF6E010EB06EA60EAC6E83
:1006F000900EAB6E030E996F9A6B9C6B9B6B9E6B0F
:100700009D6B000E7E6EC190C192C194C1967F6EAA
:100710006B6A6D6A976B986BD0500F0BD0A8000E68
:10072000D080D082D088D886D8889F6F3AD69498C7
:100730008B98949A8B9A9F6B9F5104080DE3040049
:10074000949C8B8CC80EA06F6CDE949C8B9CC80E06
:10075000A06F67DE9F2BF0D7EA6A870EE96E000E66
:10076000ACDC0A000900F550EE6E0009FBE1C6D6CC
:10077000170E216E8E0E206EAADEF40E826FC00E52
:10078000F2129F6B9F511D0803E3D7DE9F2BFAD710
:1007900024C07AF0860EF66E030EF76E0D0EA06F73
:1007A00001D7980EF66E030EF76E0DD70D0E9EA8AC
:1007B000FED7AD6E0A0E9EA8FED7AD6E9D860400D4
:1007C00085A501D012D785A102D08591B6DEF7D7D5
:0207D000FFD751
:020000040030CA
:0E000000002819180000090003C003E00340A7
:00000001FF
;PIC18F14K22
;CRC=EAD3  CREATED="14-Mar-19 15:31"
