:04000000FCEF03F01E
:08000800046ED8CF05F0E0CF33
:1000100006F00001E9CF0CF0EACF07F0E1CF08F0DD
:10002000E2CF09F0D9CF0AF0DACF0BF0F3CF12F01C
:10003000F4CF13F0FACF14F0F5CF15F0F6CF16F099
:10004000F7CF17F000C00EF001C00FF002C010F0A3
:1000500003C011F09DA230EF00F09EB25DEF00F002
:100060009DA636EF00F09EB6ABEF01F00EC000F09B
:100070000FC001F010C002F011C003F00CC0E9FF86
:1000800007C0EAFF078E08C0E1FF09C0E2FF0AC00F
:10009000D9FF0BC0DAFF12C0F3FF13C0F4FF14C086
:1000A000FAFF15C0F5FF16C0F6FF17C0F7FF0450A2
:1000B00006C0E0FF05C0D8FF100077859E9236EF9E
:1000C00000F09651050A09E00F0A09E02A0A0AE041
:1000D000010A15E0070A18E031D0736B2FD06B6B63
:1000E0006A6B2CD0985303E19751400807E298536C
:1000F00005E197515A0802E397C01AF01FD098C043
:100100001CF097C01BF01AD0972D04D0985302E131
:10011000778714D09751020804E1985302E1778958
:100120000DD097510A0805E19851070802E1778B35
:1001300005D0973D03D0983D01D0FF00E1EF01F0DD
:100140009651200DF350036A200F016E000E03221A
:1001500001C09AF003C09BF0986B976B996B995113
:100160000F0811E3D8909935036A9A25E96E9B51DF
:100170000320EA6EECCF03F0ED52EF5097270350C7
:100180009823992BECD7080E97259C6F000E982189
:100190009D6F9D31036E9C31026E03320232033239
:1001A0000232033202320F0E031602C001F003C006
:1001B00002F01200640E746F955133E0010A41E0C1
:1001C000030A43E0010A51E0070A54E0010A5BE038
:1001D000030A5FE0010A67E00F0AD8B469D0010A98
:1001E000D8B46BD0030AD8B46DD02A0AD8B46FD073
:1001F000010AD8B472D0030AD8B474D0010AD8B4B2
:1002000076D0070AD8B478D0010AD8B47AD0030AD5
:10021000D8B47CD0010AD8B481D00F0AD8B483D026
:1002200088D0D8906035036A200FE96E000E032055
:10023000EA6EECCF03F0ED52EFCF01F003C002F015
:100240007DD0966B7DDF025079D0D8906035036AFF
:10025000400FE96E000E0320EA6EECCF03F0ED5282
:10026000EFCF01F003C002F069D0010E966F68DF96
:10027000025064D0928A000E80AA010E036A016EB9
:1002800003C002F05BD0036A73C001F003C002F048
:1002900055D062C003F06151612BD8B4622B016E5E
:1002A00003C002F04BD065C001F066C002F046D03A
:1002B00063C001F064C002F041D068C001F069C0C1
:1002C00002F03CD06AC001F06BC002F037D0036A84
:1002D0001AC001F003C002F031D01BC001F01CC0F5
:1002E00002F02CD0500E016E000E026E27D05A0E76
:1002F000016E000E026E22D0500E016E000E026ED4
:100300001DD0030E016E000E026E18D0000E77BBDA
:10031000010E036A016E03C002F010D01DC001F08F
:100320001EC002F00BD0036A1FC001F003C002F030
:1003300005D0036A95C001F003C002F0EDEF01F0B3
:10034000C95095C0C9FFC6889E96C7B0FED7016A3E
:10035000C6B8012A1200C7BA03D07C6BC7B47C8F21
:100360007C517C2B936F935180082DE3935180082F
:1003700003E1C9CF92F006D0C69C9EA6FED7C95015
:10038000C688926F932D03D092C078F01CD0935101
:10039000010819E29351800816E09351020803E125
:1003A00092C07BF00ED0935103080BE17BC095F017
:1003B00092C094F078C096F07BC098F092C097F00D
:1003C00080D66B6B6A6B93517F0817E278B10FD0C0
:1003D000D8907831946F956FEDD602C07AF001C055
:1003E00079F07AC094F07AC095F0AADF05D079C090
:1003F00094F079C095F0A4DF782B696B686B9E96BA
:1004000036EF00F02320707A506F776572493243DF
:100410002025730D0A0031372D5365702D313900B9
:10042000700ED36E9B9C9B9EC050C00B0509C06E86
:10043000C08EC280140E7E6EC190C192C194C196CE
:10044000000E7F6E2F0E926E700E936E010E946EE4
:100450002B0E776EF19E786A746B766B020E756F59
:1004600077917793779577977799779B626B616BA5
:10047000646B636B666B656B606B676B696B686BFA
:100480006B6B6A6B736B000E0609CA6EF90ECB6E4E
:100490009D8230EF04F0EA6A830EE96EEF500EE0C1
:1004A000050E016E006A002EFED7012EFBD72E0E20
:1004B000006E002EFED700D0EF2EF2D712008C6B0C
:1004C0008BC003F08A51D8B48B078A078D6F03C0A5
:1004D0008EF08D5302E18E5330E089C003F08851D5
:1004E000E96E03C0EAFF8751036E8651862BD8B4AC
:1004F000872B8F6F03C090F0F2CF91F0F29E8FC0E8
:10050000A9FFA69CA69EA680A85091BFF28EEF6E72
:1005100089C003F08851E96E03C0EAFFEFCF8DF088
:100520008CC08EF08DC08FF08E518F19016E01C07E
:100530008CF0882BD8B4892BC3D78CC001F0BCEFCA
:1005400002F0960E746F500E1A6E260E1C6E910EEF
:100550001B6E1E6A140E1D6E1F6A1200856B1A0E2A
:10056000846F876B020E866F85C089F084C088F027
:100570008B6B060E8A6FA3D701C083F0F2CF84F095
:10058000F29EA96AA69CA69EA680A85084BFF28E61
:10059000835D01E0D6DF46EF04F0602B60510F0869
:1005A00001E2606B100E016EC250C30B0110C26EEF
:1005B000D8906035036A200FE96E000E0320EA6EC2
:1005C000C282C2B2FED7C3CFEFFFC4CFECFF080E8A
:1005D000016EC250C30B0110C26E010E836F5BDF50
:1005E000D8906035036A400FE96E000E0320EA6E72
:1005F000C282C2B2FED7C3CFEFFFC4CFECFF12005E
:100600000900F6CF84F0F7CF85F0F5509EA8FED70D
:10061000AD6E84C0F6FF85C0F7FF832FF1D75BEF87
:1006200004F00900F5520DE0F6CF83F0F7CF84F027
:10063000F5509EA8FED7AD6E83C0F6FF84C0F7FFCD
:10064000F0D760EF04F07795928A80BA02D0010E5D
:10065000736F745303E1949C8B9C03D0949C8B8C9C
:100660007407653D03D0663D01D003D0652BD8B437
:10067000662B802BD8B4812B8051E80835E181515D
:10068000030832E1816B806B683D03D0693D01D086
:1006900003D0682BD8B4692B6A3D03D06B3D01D0E1
:1006A00003D06A2BD8B46B2B755307E1765305E161
:1006B00094988B88949A8B8A0AD07551D8B476070F
:1006C0007507755304E1765302E1696B686B7D2B06
:1006D0007D513C0809E17D6B633D03D0643D01D051
:1006E00003D0632BD8B4642B77A303D077937F6BAD
:1006F0007E6B7E2BD8B47F2B1D507E5D06E11E5095
:100700007F5D03E17F6B7E6B77816DEF04F08C6B17
:100710008BC003F08A51D8B48B078A078D6F03C052
:100720008EF08D5302E18E533CE089C003F0885176
:10073000E96E03C0EAFFEFCF8DF08CC08EF08DC064
:100740008FF08E518F19016E01C08CF08751036EAE
:100750008651862BD8B4872B8D6F03C08EF08951BC
:10076000036E8851882BD8B4892BE96E03C0EAFF49
:10077000EFCF8FF0F250006EF29E8DC0A9FF8FC0B8
:10078000A8FFA69CA69EA6840F01550EA76EAA0ED2
:10079000A76EA682A6B2FED7A6940050F212000160
:1007A000B7D78CC001F0E3EF03F0856B1A0E846FAE
:1007B000876B020E866F85C089F084C088F08B6BD2
:1007C000060E8A6FA4D701C083F0F250006EF29E2D
:1007D000A96A83C0A8FFA69CA69EA6840F01550EF9
:1007E000A76EAA0EA76EA682A6B2FED7A694005048
:1007F000F212000175EF04F0F86AD09E078EEA6AE3
:10080000E96A938C9388340EC86E360EC66EC58026
:10081000196AB886A00EAF6E010EB06EA60EAC6E51
:10082000900EAB6E030E7C6F7D6B7F6B7E6B816B6E
:10083000806B000E7E6EC190C192C194C1967F6E96
:100840006B6A6D6A796B7A6B7B6BD0500F0BD0A89B
:10085000000ED080D082D088D886D888826FE0D52C
:1008600094988B98949A8B9A826B825104080DE32A
:100870000400949C8B8CC80E836F0DDE949C8B9C23
:10088000C80E836F08DE822BF0D768D65ADEF40ECE
:10089000746FC00EF212826B82511D0803E37DDE7D
:1008A000822BFAD71FC06CF0040EF66E040EF76EA2
:1008B0000D0E836FA5D6160EF66E040EF76EB1D62A
:1008C0000D0E9EA8FED7AD6E0A0E9EA8FED7AD6E89
:1008D0009D86040077A501D0B6D677A102D0779186
:1008E0005CDE77A702D0779760D777A902D0779799
:0608F00028DEEFD7FFD760
:020000040030CA
:0E000000002819180000090003C003E00340A7
:00000001FF
;PIC18F14K22
;CRC=A6CA  CREATED="17-Sep-19 12:36"
