:0400000024EF05F0F4
:08000800046ED8CF05F0E0CF33
:1000100006F00001E9CF0CF0EACF07F0E1CF08F0DD
:10002000E2CF09F0D9CF0AF0DACF0BF0F3CF12F01C
:10003000F4CF13F0FACF14F0F5CF15F0F6CF16F099
:10004000F7CF17F000C00EF001C00FF002C010F0A3
:1000500003C011F09DA230EF00F09EB26AEF00F0F5
:100060009DA636EF00F09EB663EF02F00EC000F0E2
:100070000FC001F010C002F011C003F00CC0E9FF86
:1000800007C0EAFF078E08C0E1FF09C0E2FF0AC00F
:10009000D9FF0BC0DAFF12C0F3FF13C0F4FF14C086
:1000A000FAFF15C0F5FF16C0F6FF17C0F7FF0450A2
:1000B00006C0E0FF05C0D8FF1000F76ACA0FF66E51
:1000C000000EF7220900F550120031392D536570EA
:1000D0002D31390084859E9236EF00F0B651050A25
:1000E00018E00F0A18E02A0A19E0010A26E0080AB7
:1000F0002BE0030A45E0010A48E0070A4BE0010A49
:100100004EE0030A51E0010A54E01F0AD8B456D069
:1001100059D07D6B57D0766B756B54D072530CE011
:10012000B85303E1B751400807E2B85305E1B751AE
:100130005A0802E3B7C01AF045D0725304E0B8C0C1
:100140001CF0B7C01BF03ED0B72D04D0B85302E16D
:10015000848715D0B751020804E1B85302E18489BD
:100160000ED0B7510A0806E1B851070803E1010EA5
:10017000726F05D0B73D03D0B83D01D0FF0022D04B
:10018000B8C01EF0B7C01DF01DD0B8C020F0B7C079
:100190001FF018D0B8C022F0B7C021F013D0B8C0FB
:1001A00024F0B7C023F00ED0B8C026F0B7C025F0B9
:1001B00009D0B8C028F0B7C027F004D0B8C02AF0E2
:1001C000B7C029F099EF02F0B651200DF350036A41
:1001D0002B0F016E000E032201C0BAF003C0BBF06A
:1001E000B86BB76BB96BB9510F0811E3D890B9353B
:1001F000036ABA25E96EBB510320EA6EECCF03F027
:10020000ED52EF50B7270350B823B92BECD7080EA7
:10021000B725BC6F000EB821BD6FBD31036EBC3178
:10022000026E0332023203320232033202320F0E06
:10023000031602C001F003C002F01200640E816FC9
:10024000B551D8B461D0010AD8B46ED0030AD8B47D
:100250006FD0010AD8B47CD0070AD8B47ED0010A86
:10026000D8B484D0030AD8B487D0010AD8B48ED0C9
:100270000F0AD8B490D0010AD8B492D0030AD8B4E7
:1002800094D0010AD8B496D0070AD8B499D0010AFC
:10029000D8B49BD0030AD8B49ED0010AD8B4A1D058
:1002A0002F0AD8B4A4D0010AD8B4A7D0030AD8B46E
:1002B000A9D0010AD8B4ABD0070AD8B4ADD0010A8E
:1002C000D8B4AFD0030AD8B4B1D0010AD8B4B4D0EE
:1002D0000F0AD8B4B7D0010AD8B4BAD0030AD8B438
:1002E000BDD0010AD8B4BFD0070AD8B4C1D0010A22
:1002F000D8B4C3D0030AD8B4C5D0010AD8B4C7D083
:100300001F0AD8B4C9D0CDD0D8906B35036A2B0F53
:10031000E96E000E0320EA6EECCF03F0ED52EFCF52
:1003200001F003C002F0C2D0B66B4EDF0250BED067
:10033000D8906B35036A4B0FE96E000E0320EA6E0E
:10034000ECCF03F0ED52EFCF01F003C002F0AED0DE
:10035000010EB66F39DF0250A9D0928A000E80AA32
:10036000010E036A016E03C002F0A0D0036A7DC0D3
:1003700001F003C002F09AD06DC003F06C516C2BF9
:10038000D8B46D2B016E03C002F090D070C001F0A4
:1003900071C002F08BD06EC001F06FC002F086D049
:1003A00073C001F074C002F081D075C001F076C056
:1003B00002F07CD0036A7EC001F003C002F076D068
:1003C0007FC001F080C002F071D0036A7AC001F0F2
:1003D00003C002F06BD0036A7BC001F003C002F0DF
:1003E00065D0036A7CC001F003C002F05FD0036AED
:1003F0001AC001F003C002F059D01BC001F01CC0AC
:1004000002F054D0500E016E000E026E4FD05A0E04
:10041000016E000E026E4AD0500E016E000E026E8A
:1004200045D0030E016E000E026E40D0036A77C005
:1004300001F003C002F03AD0036A78C001F003C0B3
:1004400002F034D0036A79C001F003C002F02ED06C
:10045000036A72C001F003C002F028D01DC001F091
:100460001EC002F023D01FC001F020C002F01ED039
:1004700021C001F022C002F019D023C001F024C035
:1004800002F014D025C001F026C002F00FD027C022
:1004900001F028C002F00AD029C001F02AC002F001
:1004A00005D0036AB5C001F003C002F0A5EF02F069
:1004B000C950B5C0C9FFC6889E96C7B0FED7016AAD
:1004C000C6B8012A1200C7BA03D0896BC7B4898F96
:1004D0008951892BB36FB35180082DE3B351800844
:1004E00003E1C9CFB2F006D0C69C9EA6FED7C95084
:1004F000C688B26FB32D03D0B2C085F01CD0B35103
:10050000010819E2B351800816E0B351020803E173
:10051000B2C088F00ED0B35103080BE188C0B5F02B
:10052000B2C0B4F085C0B6F088C0B8F0B2C0B7F0C1
:10053000D5D5766B756BB3517F0817E285B10FD0B7
:10054000D8908531B46FB56F79D602C087F001C0FD
:1005500086F087C0B4F087C0B5F0AADF05D086C0AA
:10056000B4F086C0B5F0A4DF852B746B736B9E96D8
:1005700036EF00F02320707A506F7765724932436E
:100580002025730D0A0031392D5365702D31390046
:10059000700ED36E9B9C9B9EC050C00B0509C06E15
:1005A000C08EC280140E7E6EC190C192C194C1965D
:1005B000000E7F6E2F0E926E700E936E010E946E73
:1005C0002B0E776EF19E786A816B836B020E826FC1
:1005D000849184938495849784996D6B6C6B6F6B15
:1005E0006E6B716B706B6B6B726B746B736B766B2A
:1005F000756B7D6B7E6BEA6A900EE96E000E5DDDB9
:100600000A000900F550EE6E0009FBE1300E905D26
:100610000A0DF3CF79F0300E915D792793514A0896
:100620000FE19451410803E1010E786F08D0955114
:100630004E0803E1060E786F02D0070E786F37D0B0
:100640009351410809E19451500803E1040E786F79
:1006500002D0080E786F2BD093514D0809E19551C7
:10066000520803E1030E786F02D0050E786F1FD099
:100670009351460803E1020E786F19D09351530845
:1006800003E1090E786F13D093514F0803E10A0E6E
:10069000786F0DD093514E0803E10B0E786F07D0A1
:1006A0009351440803E10C0E786F01D07869300E45
:1006B000975D0A0DF3CF77F0300E985D7727000E27
:1006C0000609CA6EF90ECB6E9D82C3EF05F0996BD9
:1006D00098C003F09751D8B4980797079A6F03C052
:1006E0009BF09A5302E19B5330E096C003F0955182
:1006F000E96E03C0EAFF9451036E9351932BD8B473
:10070000942B9C6F03C09DF0F2CF9EF0F29E9CC094
:10071000A9FFA69CA69EA680A8509EBFF28EEF6E53
:1007200096C003F09551E96E03C0EAFFEFCF9AF04F
:1007300099C09CF09AC09DF09C519D19016E01C01A
:1007400099F0952BD8B4962BC3D799C001F03DEF03
:1007500004F09A6B99C003F09851D8B499079807A0
:100760009B6F03C09CF09B5302E19C533CE097C0FD
:1007700003F09651E96E03C0EAFFEFCF9BF09AC0F9
:100780009CF09BC09DF09C519D19016E01C09AF098
:100790009551036E9451942BD8B4952B9B6F03C045
:1007A0009CF09751036E9651962BD8B4972BE96E17
:1007B00003C0EAFFEFCF9DF0F250006EF29E9BC0A7
:1007C000A9FF9DC0A8FFA69CA69EA6840F01550E5A
:1007D000A76EAA0EA76EA682A6B2FED7A694005058
:1007E000F2120001B7D79AC001F005EF04F0936B45
:1007F0001A0E926F956B020E946F93C097F092C091
:1008000096F0996B110E986FA4D701C091F0F25039
:10081000006EF29EA96A91C0A8FFA69CA69EA6841F
:100820000F01550EA76EAA0EA76EA682A6B2FED71E
:10083000A6940050F21200011200010E7E6F960E77
:10084000816F500E1A6E260E1C6E910E1B6E1E6A64
:10085000140E1D6E206A050E1F6EC9DF1200926B0A
:100860001A0E916F946B020E936F92C096F091C026
:1008700095F0986B110E976F2AD701C090F0F2CFC8
:1008800091F0F29EA96AA69CA69EA680A85091BF50
:10089000F28E905D01E0D1DFC8EF05F0EA6A900EBC
:1008A000E96EEF500EE0050E016E006A002EFED7D5
:1008B000012EFBD72E0E006E002EFED700D0EF2E9D
:1008C000F2D712006B2B6B510F0801E26B6B100E0D
:1008D000016EC250C30B0110C26ED8906B35036A13
:1008E0002B0FE96E000E0320EA6EC282C2B2FED761
:1008F000C3CFEFFFC4CFECFF080E016EC250C30B95
:100900000110C26E010E906FC9DFD8906B35036A7B
:100910004B0FE96E000E0320EA6EC282C2B2FED710
:10092000C3CFEFFFC4CFECFF12000900F6CF91F068
:10093000F7CF92F0F5509EA8FED7AD6E91C0F6FFAE
:1009400092C0F7FF902FF1D7F5EF05F00900F552AF
:100950000DE0F6CF90F0F7CF91F0F5509EA8FED7BE
:10096000AD6E90C0F6FF91C0F7FFF0D7FAEF05F03B
:100970008495928A80BA02D0010E7D6F815303E183
:10098000949C8B9C03D0949C8B8C8107703D03D0EE
:10099000713D01D003D0702BD8B4712B8D2BD8B4FE
:1009A0008E2B8D51E8083DE18E5103083AE18E6BA4
:1009B0008D6B733D03D0743D01D003D0732BD8B43D
:1009C000742B753D03D0763D01D003D0752BD8B480
:1009D000762B2850765D05E303E17551275C01E233
:1009E0007B85825307E1835305E194988B88949A21
:1009F0008B8A0AD08251D8B483078207825304E1DC
:100A0000835302E1746B736B8A2B8A513C0809E1B2
:100A10008A6B6E3D03D06F3D01D003D06E2BD8B4EE
:100A20006F2B84A303D084938C6B8B6B8B2BD8B4EC
:100A30008C2B1D508B5D06E11E508C5D03E18C6B91
:100A40008B6B848107EF06F0F86AD09E078EEA6A06
:100A5000E96A938C9388340EC86E360EC66EC580D4
:100A6000196AB886A00EAF6E010EB06EA60EAC6EFF
:100A7000900EAB6E030E896F8A6B8C6B8B6B8E6BDB
:100A80008D6B000E7E6EC190C192C194C1967F6E37
:100A90006B6A6D6A1A6A1B6A1C6A1D6A1E6A1F6A83
:100AA000206A216A226A236A246A256A266A276ADA
:100AB000286A296A2A6A2B6A2C6A2D6A2E6A2F6A8A
:100AC000306A316A326A336A346A356A366A376A3A
:100AD000386A396A3A6A3B6A3C6A3D6A3E6A3F6AEA
:100AE000406A416A426A436A446A456A466A476A9A
:100AF000486A496A4A6A4B6A4C6A4D6A4E6A4F6A4A
:100B0000506A516A526A536A546A556A566A576AF9
:100B1000586A596A5A6A5B6A5C6A5D6A5E6A5F6AA9
:100B2000606B616B626B636B646B656B666B676B51
:100B3000686B696B6A6B6B6B6C6B6D6B6E6B6F6B01
:100B4000706B716B726B736B746B756B766B776BB1
:100B5000786B796B7A6B7B6B7C6B7D6B7E6B7F6B61
:100B6000806B816B826B836B846B866B876B886B0E
:100B7000D0500F0BD0A8000ED080D082D088D8865D
:100B8000D8888F6F05D594988B98949A8B9A67D64E
:100B9000205203E11F50640803E2206A640E1F6EB6
:100BA0008F6B205203E11F508F5D0DE20400949C77
:100BB0008B8CC80E906F72DE949C8B9CC80E906FCD
:100BC0006DDE8F2BEED7F40E816FC00EF2128F6B9D
:100BD0008F511D0803E376DE8F2BFAD7740EF66E65
:100BE000050EF76E0D0E906FA0D6860EF66E050EF2
:100BF000F76EACD60D0E9EA8FED7AD6E0A0E9EA85F
:100C0000FED7AD6E9D86040084A501D0B1D684A127
:100C100002D0849157DE84A702D08497E8DD84A9AE
:0A0C200002D084990ADEEFD7FFD757
:0200000400F00A
:080000000000000040000000B8
:020000040030CA
:0E000000002819180000090003C003E00340A7
:00000001FF
;PIC18F14K22
;CRC=057F  CREATED="19-Sep-19 16:30"
