:0400000051EF05F0C7
:08000800046ED8CF05F0E0CF33
:1000100006F00001E9CF0CF0EACF07F0E1CF08F0DD
:10002000E2CF09F0D9CF0AF0DACF0BF0F3CF12F01C
:10003000F4CF13F0FACF14F0F5CF15F0F6CF16F099
:10004000F7CF17F000C00EF001C00FF002C010F0A3
:1000500003C011F09DA230EF00F09EB26AEF00F0F5
:100060009DA636EF00F09EB67FEF02F00EC000F0C6
:100070000FC001F010C002F011C003F00CC0E9FF86
:1000800007C0EAFF078E08C0E1FF09C0E2FF0AC00F
:10009000D9FF0BC0DAFF12C0F3FF13C0F4FF14C086
:1000A000FAFF15C0F5FF16C0F6FF17C0F7FF0450A2
:1000B00006C0E0FF05C0D8FF1000F76ACA0FF66E51
:1000C000000EF7220900F550120032302D536570F2
:1000D0002D31390080859E9236EF00F0BF51050A20
:1000E00029E00F0A29E0060A2AE02C0A2DE0010A7D
:1000F0003AE0080A3FE0030AD8B458D0010AD8B45D
:100100005AD0070AD8B45CD0010AD8B45ED0030A2A
:10011000D8B460D0010AD8B462D01F0AD8B464D071
:10012000010AD8B466D0030AD8B468D0010AD8B49A
:100130006AD06DD07E6B6BD08B6B8A6B68D0C1C080
:1001400083F0C0C082F063D078530CE0C15303E168
:10015000C051400807E2C15305E1C0515A0802E30B
:10016000C0C01AF054D0785304E0C1C01CF0C0C025
:100170001BF04DD0C02D04D0C15302E1808715D0B3
:10018000C051020804E1C15302E180890ED0C05180
:100190000A0806E1C151070803E1010E786F05D096
:1001A000C03D03D0C13D01D0FF0031D0C1C01EF021
:1001B000C0C01DF02CD0C1C020F0C0C01FF027D09F
:1001C000C1C022F0C0C021F022D0C1C024F0C0C004
:1001D00023F01DD0C1C026F0C0C025F018D0C1C08A
:1001E00028F0C0C027F013D0C1C02AF0C0C029F049
:1001F0000ED0C1C02CF0C0C02BF009D0C1C02EF071
:10020000C0C02DF004D0C1C030F0C0C02FF0B5EF99
:1002100002F0BF51200DF350036A310F016E000E42
:10022000032201C0C3F003C0C4F0C16BC06BC26B3A
:10023000C2510F0811E3D890C235036AC325E96E95
:10024000C4510320EA6EECCF03F0ED52EF50C0270B
:100250000350C123C22BECD7080EC025C56F000E7A
:10026000C121C66FC631036EC531026E0332023240
:1002700003320232033202320F0E031602C001F0C3
:1002800003C002F01200640E816FBE51D8B45ED07C
:10029000010AD8B46BD0030AD8B46CD0010AD8B420
:1002A00079D0070AD8B47BD0010AD8B481D0030A28
:1002B000D8B484D0010AD8B48BD00F0AD8B48DD06A
:1002C000010AD8B48FD0030AD8B491D0010AD8B4A7
:1002D00093D0070AD8B496D0020AD8B498D0010AAD
:1002E000D8B49BD02F0AD8B49ED0010AD8B4A1D0DC
:1002F000030AD8B4A3D0010AD8B4A5D0070AD8B449
:10030000A7D0010AD8B4A9D0030AD8B4ABD0010A47
:10031000D8B4AED00F0AD8B4B1D0010AD8B4B4D092
:10032000030AD8B4B7D0010AD8B4B9D0070AD8B4F0
:10033000BBD0010AD8B4BDD0030AD8B4BFD0010ADB
:10034000D8B4C1D01F0AD8B4C3D0C7D0D8907135A3
:10035000036A310FE96E000E0320EA6EECCF03F062
:10036000ED52EFCF01F003C002F0BCD0BF6B51DF04
:100370000250B8D0D8907135036A510FE96E000E63
:100380000320EA6EECCF03F0ED52EFCF01F003C093
:1003900002F0A8D0010EBF6F3CDF0250A3D0928ABA
:1003A000000E80AA010E036A016E03C002F09AD00B
:1003B000036A7EC001F003C002F094D073C003F062
:1003C0007251722BD8B4732B016E03C002F08AD025
:1003D00076C001F077C002F085D074C001F075C01E
:1003E00002F080D086C001F087C002F07BD08AC0C6
:1003F00001F08BC002F076D0036A7FC001F003C029
:1004000002F070D082C001F083C002F06BD0036AAA
:100410007CC001F003C002F065D0036A7DC001F02A
:1004200003C002F05FD0036A1AC001F003C002F0FB
:1004300059D01BC001F01CC002F054D0500E016E08
:10044000000E026E4FD05A0E016E000E026E4AD0A0
:10045000500E016E000E026E45D0030E016E000EAE
:10046000026E40D0036A79C001F003C002F03AD0B6
:10047000036A7AC001F003C002F034D0036A7BC083
:1004800001F003C002F02ED0036A78C001F003C06F
:1004900002F028D01DC001F01EC002F023D01FC002
:1004A00001F020C002F01ED021C001F022C002F0F5
:1004B00019D023C001F024C002F014D025C001F0EF
:1004C00026C002F00FD027C001F028C002F00AD0E9
:1004D00029C001F02AC002F005D0036ABEC001F0B5
:1004E00003C002F0BFEF02F0C950BEC0C9FFC6880A
:1004F0009E96C7B0FED7016AC6B8012A1200C7BAD5
:1005000003D0926BC7B4928F9251922BBC6FBC51A7
:1005100080082BE3BC51800803E1C9CFBBF006D0B3
:10052000C69C9EA6FED7C950C688BB6FBC2D03D003
:10053000BBC08EF01AD0BC51010817E2BC51800834
:1005400014E0BC51020803E1BBC091F00ED0BC51D5
:1005500003080BE191C0BEF0BBC0BDF08EC0BFF080
:1005600091C0C1F0BBC0C0F0B9D5BC517F0817E243
:100570008EB10FD0D8908E31BD6FBE6F84D602C0C1
:1005800090F001C08FF090C0BDF090C0BEF0ACDF25
:1005900005D08FC0BDF08FC0BEF0A6DF8E2B876B5D
:1005A000866B9E9636EF00F0700ED36E9B9C9B9EE2
:1005B000C050C00B0509C06EC08EC280140E7E6E86
:1005C000C190C192C194C196000E7F6E2F0E926EA3
:1005D000700E936E010E946E2B0E776EF19E786AFC
:1005E00083698269EA6A990EE96E000E66DD0A0087
:1005F0000900F550EE6E0009FBE1300E995D0A0D21
:10060000F3CF7BF0300E9A5D7B279C514A080FE1B7
:100610009D51410803E1010E7A6F08D09E514E08AA
:1006200003E1060E7A6F02D0070E7A6F37D09C5125
:10063000410809E19D51500803E1040E7A6F02D090
:10064000080E7A6F2BD09C514D0809E19E5152083B
:1006500003E1030E7A6F02D0050E7A6F1FD09C5112
:10066000460803E1020E7A6F19D09C51530803E14A
:10067000090E7A6F13D09C514F0803E10A0E7A6F6E
:100680000DD09C514E0803E10B0E7A6F07D09C51A0
:10069000440803E10C0E7A6F01D07A69300EA05D38
:1006A0000A0DF3CF79F0300EA15D7927000E06090F
:1006B000CA6EF90ECB6E9D82EFEF05F0A26BA1C062
:1006C00003F0A051D8B4A107A007A36F03C0A4F002
:1006D000A35302E1A45330E09FC003F09E51E96EA2
:1006E00003C0EAFF9D51036E9C519C2BD8B49D2BF7
:1006F000A56F03C0A6F0F2CFA7F0F29EA5C0A9FF98
:10070000A69CA69EA680A850A7BFF28EEF6E9FC0A3
:1007100003F09E51E96E03C0EAFFEFCFA3F0A2C041
:10072000A5F0A3C0A6F0A551A619016E01C0A2F0C4
:100730009E2BD8B49F2BC3D7A2C001F03FEF04F08B
:10074000A36BA2C003F0A151D8B4A207A107A46F64
:1007500003C0A5F0A45302E1A5533CE0A0C003F000
:100760009F51E96E03C0EAFFEFCFA4F0A3C0A5F04C
:10077000A4C0A6F0A551A619016E01C0A3F09E5118
:10078000036E9D519D2BD8B49E2BA46F03C0A5F082
:10079000A051036E9F519F2BD8B4A02BE96E03C0CC
:1007A000EAFFEFCFA6F0F250006EF29EA4C0A9FFC0
:1007B000A6C0A8FFA69CA69EA6840F01550EA76EF4
:1007C000AA0EA76EA682A6B2FED7A6940050F21279
:1007D0000001B7D7A3C001F0FCEF03F09C6B1A0E29
:1007E0009B6F9E6B020E9D6F9CC0A0F09BC09FF004
:1007F000A26B170EA16FA4D701C09AF0F250006E41
:10080000F29EA96A9AC0A8FFA69CA69EA6840F0184
:10081000550EA76EAA0EA76EA682A6B2FED7A69404
:100820000050F21200011200010E7F6F960E816FD0
:10083000500E1A6E260E1C6E910E1B6E1E6A140E42
:100840001D6E206A050E1F6E226A020E216E24683C
:100850002368266A256E286827682A6A296EBEDF03
:1008600012009B6B1A0E9A6F9D6B020E9C6F9BC0C1
:100870009FF09AC09EF0A16B170EA06F1FD701C00A
:1008800099F0F2CF9AF0F29EA96AA69CA69EA68045
:10089000A8509ABFF28E995D01E0C6DFF4EF05F033
:1008A000EA6A990EE96EEF500EE0050E016E006ADD
:1008B000002EFED7012EFBD72E0E006E002EFED787
:1008C00000D0EF2EF2D71200712B71510F0801E208
:1008D000716B100E016EC250C30B0110C26ED89026
:1008E0007135036A310FE96E000E0320EA6EC28291
:1008F000C2B2FED7C3CFEFFFC4CFECFF080E016E2C
:10090000C250C30B0110C26E010E996FC9DFD8909F
:100910007135036A510FE96E000E0320EA6EC28240
:10092000C2B2FED7C3CFEFFFC4CFECFF1200809559
:10093000928A80BA02D0010E7E6F815303E1949CAB
:100940008B9C03D0949C8B8C8107763D03D0773DA4
:1009500001D003D0762BD8B4772B962BD8B4972B15
:100960009651E808D8A48AD097510308D8A486D015
:10097000976B966B823D03D0833D01D01DD082538F
:1009800002E1835305E08251D8B48307820714D073
:100990007CB106D07C8122C085F021C084F00CD0CF
:1009A000845306E1855304E17C918369826904D014
:1009B0008451D8B485078407863D03D0873D01D094
:1009C00003D0862BD8B4872B8A3D03D08B3D01D032
:1009D00003D08A2BD8B48B2B2450875D19E303E115
:1009E0008651235C15E27CB306D07C8326C089F057
:1009F00025C088F00CD0885306E1895304E17C932C
:100A0000876B866B04D08851D8B48907880701D0DA
:100A10007C9328508B5D19E303E18A51275C15E232
:100A20007CB506D07C852AC08DF029C08CF00CD016
:100A30008C5306E18D5304E17C958B6B8A6B04D05B
:100A40008C51D8B48D078C0701D07C957C5305E080
:100A500094988B98949A8B9A04D094988B88949AB3
:100A60008B8A932B93513C0809E1936B743D03D01F
:100A7000753D01D003D0742BD8B4752B80A303D05F
:100A80008093956B946B942BD8B4952B1D50945DEB
:100A900006E11E50955D03E1956B946B80811FEF1D
:100AA00006F0F86AD09E078EEA6AE96A938C93880A
:100AB000340EC86E360EC66EC580196AB886A00E92
:100AC000AF6E010EB06EA60EAC6E900EAB6E030E46
:100AD000926F936B956B946B976B966B000E7E6E1B
:100AE000C190C192C194C1967F6E6B6A6D6A1A6A99
:100AF0001B6A1C6A1D6A1E6A1F6A206A216A226AB2
:100B0000236A246A256A266A276A286A296A2A6A61
:100B10002B6A2C6A2D6A2E6A2F6A306A316A326A11
:100B2000336A346A356A366A376A386A396A3A6AC1
:100B30003B6A3C6A3D6A3E6A3F6A406A416A426A71
:100B4000436A446A456A466A476A486A496A4A6A21
:100B50004B6A4C6A4D6A4E6A4F6A506A516A526AD1
:100B6000536A546A556A566A576A586A596A5A6A81
:100B70005B6A5C6A5D6A5E6A5F6A606B616B626B2E
:100B8000636B646B656B666B676B686B696B6A6BD9
:100B90006B6B6C6B6D6B6E6B6F6B706B716B726B89
:100BA000736B746B756B766B776B786B796B7A6B39
:100BB0007B6B7C6B7D6B7E6B7F6B806B816B826BE9
:100BC000836B846B856B866B876B886B896B8A6B99
:100BD0008B6B8C6B8D6B8F6B906B916BE5D494985A
:100BE0008B98949A8B9A3DD6205203E11F5064084B
:100BF00003E2206A640E1F6E986B205203E11F50BF
:100C0000985D0DE20400949C8B8CC80E996F48DEB1
:100C1000949C8B9CC80E996F43DE982BEED7F40EF4
:100C2000816FC00EF212986B98511D0803E34CDEE1
:100C3000982BFAD79D86040080A501D078D680A194
:100C400002D0809141DE80A702D08097C7DD80A9C5
:0A0C500002D08099E9DDEFD7FFD74D
:0200000400F00A
:080000000000000040000000B8
:020000040030CA
:0E000000002819180000090003C003E00340A7
:00000001FF
;PIC18F14K22
;CRC=A54E  CREATED="20-Sep-19 11:49"
