:0400000018EF03F002
:08000800046ED8CF05F0E0CF33
:1000100006F00001E9CF0CF0EACF07F0E1CF08F0DD
:10002000E2CF09F0D9CF0AF0DACF0BF0F3CF12F01C
:10003000F4CF13F0FACF14F0F5CF15F0F6CF16F099
:10004000F7CF17F000C00EF001C00FF002C010F0A3
:1000500003C011F09DA230EF00F09EB25DEF00F002
:100060009DA636EF00F09EB669EF01F00EC000F0DD
:100070000FC001F010C002F011C003F00CC0E9FF86
:1000800007C0EAFF078E08C0E1FF09C0E2FF0AC00F
:10009000D9FF0BC0DAFF12C0F3FF13C0F4FF14C086
:1000A000FAFF15C0F5FF16C0F6FF17C0F7FF0450A2
:1000B00006C0E0FF05C0D8FF100084859E9236EF91
:1000C00000F0A251200DF350036A2F0F016E000EB5
:1000D000032201C0A6F003C0A7F0A46BA36BA56B1D
:1000E000A5510F0811E3D890A535036AA625E96E3E
:1000F000A7510320EA6EECCF03F0ED52EF50A32797
:100100000350A423A52BECD7080EA325A86F000E3F
:10011000A421A96FA931036EA831026E0332023205
:1001200003320232033202320F0E031602C001F014
:1001300003C002F01200640E816FA15133E0010A86
:1001400041E0030A43E0010A51E0070A54E0010AD2
:100150005BE0030A5FE0010A67E00F0AD8B469D0E8
:10016000010AD8B46BD0290AD8B46DD0010AD8B42A
:1001700070D0030AD8B472D0010AD8B474D0070A78
:10018000D8B476D0010AD8B478D0030AD8B47AD0DB
:10019000010AD8B47CD00F0AD8B47ED0010AD8B4F2
:1001A00080D085D0D8906F35036A2F0FE96E000E8E
:1001B0000320EA6EECCF03F0ED52EFCF01F003C065
:1001C00002F07AD0A26B7DDF025076D0D8906F35E6
:1001D000036A4F0FE96E000E0320EA6EECCF03F0C6
:1001E000ED52EFCF01F003C002F066D0010EA26F16
:1001F00068DF025061D0928A000E80AA010E036A65
:10020000016E03C002F058D0036A80C001F003C041
:1002100002F052D071C003F07051702BD8B4712B22
:10022000016E03C002F048D074C001F075C002F046
:1002300043D072C001F073C002F03ED077C001F02D
:1002400078C002F039D0036A19C001F003C002F08F
:1002500033D01AC001F01BC002F02ED0500E016E38
:10026000000E026E29D05A0E016E000E026E24D0CE
:10027000500E016E000E026E1FD0030E016E000EB6
:10028000026E1AD01CC001F01DC002F015D01FC0B4
:1002900001F020C002F010D021C001F022C002F015
:1002A0000BD0036A23C001F003C002F005D0036A3B
:1002B000A1C001F003C002F095EF01F0C950A1C048
:1002C000C9FFC6889E96C7B0FED7016AC6B8012A84
:1002D0001200C7BA03D0886BC7B4888F8851882BA7
:1002E0009F6F9F51800817E39F51800803E1C9CF9A
:1002F0009EF006D0C69C9EA6FED7C950C6889E6FAB
:100300009F2D03D09EC085F006D09F51010803E2C7
:100310009F51800800E09F517F0817E285B10FD000
:10032000D8908531A06FA16F06D702C087F001C0B9
:1003300086F087C0A0F087C0A1F0C0DF05D086C0DE
:10034000A0F086C0A1F0BADF852B786B776B9E9604
:1003500036EF00F0700ED36E9B9C9B9EC050C00B7E
:100360000509C06EC08EC280140E7E6EC190C1920F
:10037000C194C196000E7F6E2F0E926E700E936E1A
:10038000010E946E2B0E776EF19E786A816B836BF3
:10039000020E826F849184938495716B706B736B82
:1003A000726B756B746B6F6B766B786B776B806B46
:1003B0002BC07BF02AC07AF027C07DF026C07CF0ED
:1003C0007F6B7E6B000E0609CA6EF90ECB6E9D82A6
:1003D00041EF03F0EA6A8F0EE96EEF500EE0050E72
:1003E000016E006A002EFED7012EFBD72E0E006E86
:1003F000002EFED700D0EF2EF2D71200986B97C0D8
:1004000003F09651D8B497079607996F03C09AF0F6
:10041000995302E19A5330E095C003F09451E96E8C
:1004200003C0EAFF9351036E9251922BD8B4932BE1
:100430009B6F03C09CF0F2CF9DF0F29E9BC0A9FF82
:10044000A69CA69EA680A8509DBFF28EEF6E95C07A
:1004500003F09451E96E03C0EAFFEFCF99F098C022
:100460009AF099C09BF09A519B19016E01C098F0C7
:10047000942BD8B4952BC3D798C001F065EF02F048
:10048000960E816F500E196E260E1B6E930E1A6E0D
:100490001D6A140E1C6E1E6A170E206E8E0E1F6EC5
:1004A000226A020E216E236A010E2E6E1200916BDB
:1004B000190E906F936B020E926F91C095F090C0E1
:1004C00094F0976B160E966F99D701C08FF0F2CF0C
:1004D00090F0F29EA96AA69CA69EA680A85090BF06
:1004E000F28E8F5D01E0CCDF57EF03F06F2B6F5181
:1004F0000F0801E26F6B100E016EC250C30B0110AA
:10050000C26ED8906F35036A2F0FE96E000E03207C
:10051000EA6EC282C2B2FED7C3CFEFFFC4CFECFFF8
:10052000080E016EC250C30B0110C26E010E8F6F18
:1005300051DFD8906F35036A4F0FE96E000E03202C
:10054000EA6EC282C2B2FED7C3CFEFFFC4CFECFFC8
:1005500012008495928A80BA02D0010E806F815376
:1005600003E1949C8B9C03D0949C8B8C8107743DFD
:1005700003D0753D01D003D0742BD8B4752B8C2BD0
:10058000D8B48D2B8C51E80840E18D5103083DE132
:100590008D6B8C6B773D03D0783D01D003D0772BEA
:1005A000D8B4782B1F5202E120520FE02050785D22
:1005B0000CE303E177511F5C08E2825306E18353A9
:1005C00004E122C083F021C082F0825307E183530B
:1005D00005E194988B88949A8B8A0AD08251D8B47A
:1005E00083078207825304E1835302E1786B776BC0
:1005F000892B89513C0809E1896B723D03D0733D19
:1006000001D003D0722BD8B4732B84A303D084936E
:100610008B6B8A6B8A2BD8B48B2B1C508A5D06E1BE
:100620001D508B5D03E18B6B8A6B84816AEF03F055
:10063000F86AD09E078EEA6AE96A938C9388340E32
:10064000C86E360EC66EC580030E886F896B8B6BC5
:100650008A6B8D6B8C6B000E7E6EC190C192C194C3
:10066000C1967F6E6B6A6D6A866B876BD0500F0B7D
:10067000D0A8000ED080D082D088D886D8888E6F3F
:1006800069D694988B98949A8B9A8E6B8E510408A5
:100690000DE30400949C8B8CC80E8F6F9BDE949CA2
:1006A0008B9CC80E8F6F96DE8E2BF0D700D7E8DEBE
:1006B000F40E816FC00EF2128E6B8E511D0803E393
:1006C00015DF8E2BFAD723C079F09D86040084A510
:1006D00001D03FD784A102D0849108DFF7D7FFD79C
:020000040030CA
:0E000000002819180000090003C003E00340A7
:00000001FF
;PIC18F14K22
;CRC=7B04  CREATED="09-Apr-19 15:20"
