:0400000000EF05F018
:08000800046ED8CF05F0E0CF33
:1000100006F00001E9CF0CF0EACF07F0E1CF08F0DD
:10002000E2CF09F0D9CF0AF0DACF0BF0F3CF12F01C
:10003000F4CF13F0FACF14F0F5CF15F0F6CF16F099
:10004000F7CF17F000C00EF001C00FF002C010F0A3
:1000500003C011F09DA230EF00F09EB26AEF00F0F5
:100060009DA636EF00F09EB647EF02F00EC000F0FE
:100070000FC001F010C002F011C003F00CC0E9FF86
:1000800007C0EAFF078E08C0E1FF09C0E2FF0AC00F
:10009000D9FF0BC0DAFF12C0F3FF13C0F4FF14C086
:1000A000FAFF15C0F5FF16C0F6FF17C0F7FF0450A2
:1000B00006C0E0FF05C0D8FF1000F76ACA0FF66E51
:1000C000000EF7220900F550120031392D536570EA
:1000D0002D31390083859E9236EF00F0B551050A27
:1000E00018E00F0A18E02A0A19E0010A26E0080AB7
:1000F0002BE0030A45E0010A48E0070A4BE0010A49
:100100004EE0030A51E0010A54E01F0AD8B456D069
:1001100059D07C6B57D0766B756B54D072530CE012
:10012000B75303E1B651400807E2B75305E1B651B2
:100130005A0802E3B6C01AF045D0725304E0B7C0C3
:100140001CF0B6C01BF03ED0B62D04D0B75302E170
:10015000838715D0B651020804E1B75302E18389C1
:100160000ED0B6510A0806E1B751070803E1010EA7
:10017000726F05D0B63D03D0B73D01D0FF0022D04D
:10018000B7C01EF0B6C01DF01DD0B7C020F0B6C07D
:100190001FF018D0B7C022F0B6C021F013D0B7C0FE
:1001A00024F0B6C023F00ED0B7C026F0B6C025F0BC
:1001B00009D0B7C028F0B6C027F004D0B7C02AF0E5
:1001C000B6C029F07DEF02F0B551200DF350036A5F
:1001D0002B0F016E000E032201C0B9F003C0BAF06C
:1001E000B76BB66BB86BB8510F0811E3D890B83540
:1001F000036AB925E96EBA510320EA6EECCF03F029
:10020000ED52EF50B6270350B723B82BECD7080EAA
:10021000B625BB6F000EB721BC6FBC31036EBB317E
:10022000026E0332023203320232033202320F0E06
:10023000031602C001F003C002F01200640E806FCA
:10024000B45158E0010AD8B465D0030AD8B466D0D6
:10025000010AD8B473D0070AD8B475D0010AD8B44B
:100260007BD0030AD8B47ED0010AD8B485D00F0A57
:10027000D8B487D0010AD8B489D0030AD8B48BD0B7
:10028000010AD8B48DD0070AD8B490D02C0AD8B4BB
:1002900092D0010AD8B495D0030AD8B497D0010AF5
:1002A000D8B499D0070AD8B49BD0010AD8B49DD04D
:1002B000030AD8B49FD0010AD8B4A2D00F0AD8B488
:1002C000A5D0010AD8B4A8D0030AD8B4ABD0010A8B
:1002D000D8B4ADD0070AD8B4AFD0010AD8B4B1D0E1
:1002E000030AD8B4B3D0010AD8B4B5D01F0AD8B421
:1002F000B7D0BBD0D8906B35036A2B0FE96E000ED8
:100300000320EA6EECCF03F0ED52EFCF01F003C013
:1003100002F0B0D0B56B58DF0250ACD0D8906B353E
:10032000036A4B0FE96E000E0320EA6EECCF03F078
:10033000ED52EFCF01F003C002F09CD0010EB56F7B
:1003400043DF025097D0928A000E80AA010E036A02
:10035000016E03C002F08ED0036A7CC001F003C0BE
:1003600002F088D06DC003F06C516C2BD8B46D2BAB
:10037000016E03C002F07ED070C001F071C002F0C7
:1003800079D06EC001F06FC002F074D073C001F07C
:1003900074C002F06FD075C001F076C002F06AD070
:1003A000036A7DC001F003C002F064D07EC001F09A
:1003B0007FC002F05FD0036A1AC001F003C002F0F0
:1003C00059D01BC001F01CC002F054D0500E016E79
:1003D000000E026E4FD05A0E016E000E026E4AD011
:1003E000500E016E000E026E45D0030E016E000E1F
:1003F000026E40D0036A77C001F003C002F03AD029
:10040000036A78C001F003C002F034D0036A79C0F7
:1004100001F003C002F02ED0036A72C001F003C0E5
:1004200002F028D01DC001F01EC002F023D01FC072
:1004300001F020C002F01ED021C001F022C002F065
:1004400019D023C001F024C002F014D025C001F05F
:1004500026C002F00FD027C001F028C002F00AD059
:1004600029C001F02AC002F005D0036AB4C001F02F
:1004700003C002F089EF02F0C950B4C0C9FFC688BA
:100480009E96C7B0FED7016AC6B8012A1200C7BA45
:1004900003D0886BC7B4888F8851882BB26FB25154
:1004A00080082DE3B251800803E1C9CFB1F006D036
:1004B000C69C9EA6FED7C950C688B16FB22D03D088
:1004C000B1C084F01CD0B251010819E2B2518008C9
:1004D00016E0B251020803E1B1C087F00ED0B2516C
:1004E00003080BE187C0B4F0B1C0B3F084C0B5F02D
:1004F00087C0B7F0B1C0B6F0F1D5766B756BB2516D
:100500007F0817E284B10FD0D8908431B36FB46FF5
:1005100095D602C086F001C085F086C0B3F086C0D3
:10052000B4F0AADF05D085C0B3F085C0B4F0A4DF75
:10053000842B746B736B9E9636EF00F02320707AD9
:10054000506F7765724932432025730D0A003139A7
:100550002D5365702D313900700ED36E9B9C9B9E80
:10056000C050C00B0509C06EC08EC280140E7E6ED6
:10057000C190C192C194C196000E7F6E2F0E926EF3
:10058000700E936E010E946E2B0E776EF19E786A4C
:10059000806B826B020E816F839183938395839727
:1005A00083996D6B6C6B6F6B6E6B716B706B6B6B40
:1005B000726B746B736B766B756B7C6B7D6BEA6ABD
:1005C0008F0EE96E000E79DD0A000900F550EE6E1F
:1005D0000009FBE1300E8F5D0A0DF3CF79F0300E8C
:1005E000905D792792514A080FE19351410803E148
:1005F000010E786F08D094514E0803E1060E786F13
:1006000002D0070E786F37D09251410809E193511B
:10061000500803E1040E786F02D0080E786F2BD0DB
:1006200092514D0809E19451520803E1030E786F8D
:1006300002D0050E786F1FD09251460803E1020EDA
:10064000786F19D09251530803E1090E786F13D0D7
:1006500092514F0803E10A0E786F0DD092514E0867
:1006600003E10B0E786F07D09251440803E10C0EA2
:10067000786F01D07869300E965D0A0DF3CF77F070
:10068000300E975D7727000E0609CA6EF90ECB6E05
:100690009D829EEF05F0986B97C003F09651D8B4F9
:1006A00097079607996F03C09AF0995302E19A53FE
:1006B00030E095C003F09451E96E03C0EAFF935116
:1006C000036E9251922BD8B4932B9B6F03C09CF076
:1006D000F2CF9DF0F29E9BC0A9FFA69CA69EA6808D
:1006E000A8509DBFF28EEF6E95C003F09451E96E55
:1006F00003C0EAFFEFCF99F098C09BF099C09CF03F
:100700009B519C19016E01C098F0942BD8B4952B85
:10071000C3D798C001F021EF04F0996B98C003F0A3
:100720009751D8B4980797079A6F03C09BF09A53D4
:1007300002E19B533CE096C003F09551E96E03C083
:10074000EAFFEFCF9AF099C09BF09AC09CF09B51C2
:100750009C19016E01C099F09451036E9351932B33
:10076000D8B4942B9A6F03C09BF09651036E9551A9
:10077000952BD8B4962BE96E03C0EAFFEFCF9CF01F
:10078000F250006EF29E9AC0A9FF9CC0A8FFA69CE2
:10079000A69EA6840F01550EA76EAA0EA76EA6826E
:1007A000A6B2FED7A6940050F2120001B7D799C0A6
:1007B00001F0E9EF03F0926B1A0E916F946B020E49
:1007C000936F92C096F091C095F0986B110E976F51
:1007D000A4D701C090F0F250006EF29EA96A90C0BA
:1007E000A8FFA69CA69EA6840F01550EA76EAA0E72
:1007F000A76EA682A6B2FED7A6940050F212000100
:100800001200010E7D6F960E806F500E1A6E260E2E
:100810001C6E910E1B6E1E6A140E1D6E206A050E54
:100820001F6EC9DF1200916B1A0E906F936B020E50
:10083000926F91C095F090C094F0976B110E966FE7
:100840002AD701C08FF0F2CF90F0F29EA96AA69C41
:10085000A69EA680A85090BFF28E8F5D01E0D1DFEA
:10086000A3EF05F0EA6A8F0EE96EEF500EE0050E79
:10087000016E006A002EFED7012EFBD72E0E006EF1
:10088000002EFED700D0EF2EF2D712006B2B6B514B
:100890000F0801E26B6B100E016EC250C30B01100A
:1008A000C26ED8906B35036A2B0FE96E000E0320E1
:1008B000EA6EC282C2B2FED7C3CFEFFFC4CFECFF55
:1008C000080E016EC250C30B0110C26E010E8F6F75
:1008D000C9DFD8906B35036A4B0FE96E000E032019
:1008E000EA6EC282C2B2FED7C3CFEFFFC4CFECFF25
:1008F00012000900F6CF90F0F7CF91F0F5509EA8C6
:10090000FED7AD6E90C0F6FF91C0F7FF8F2FF1D7E5
:10091000D0EF05F00900F5520DE0F6CF8FF0F7CFDC
:1009200090F0F5509EA8FED7AD6E8FC0F6FF90C038
:10093000F7FFF0D7D5EF05F08395928A80BA02D001
:10094000010E7C6F805303E1949C8B9C03D0949C9C
:100950008B8C8007703D03D0713D01D003D0702B8C
:10096000D8B4712B8C2BD8B48D2B8C51E80835E181
:100970008D51030832E18D6B8C6B733D03D0743D58
:1009800001D003D0732BD8B4742B753D03D0763DC2
:1009900001D003D0752BD8B4762B815307E1825355
:1009A00005E194988B88949A8B8A0AD08151D8B4A7
:1009B00082078107815304E1825302E1746B736BF8
:1009C000892B89513C0809E1896B6E3D03D06F3D4D
:1009D00001D003D06E2BD8B46F2B83A303D08393A5
:1009E0008B6B8A6B8A2BD8B48B2B1D508A5D06E1EA
:1009F0001E508B5D03E18B6B8A6B8381E2EF05F008
:100A0000F86AD09E078EEA6AE96A938C9388340E5E
:100A1000C86E360EC66EC580196AB886A00EAF6E57
:100A2000010EB06EA60EAC6E900EAB6E030E886F0C
:100A3000896B8B6B8A6B8D6B8C6B000E7E6EC1909D
:100A4000C192C194C1967F6E6B6A6D6A1A6A1B6A05
:100A50001C6A1D6A1E6A1F6A206A216A226A236A4A
:100A6000246A256A266A276A286A296A2A6A2B6AFA
:100A70002C6A2D6A2E6A2F6A306A316A326A336AAA
:100A8000346A356A366A376A386A396A3A6A3B6A5A
:100A90003C6A3D6A3E6A3F6A406A416A426A436A0A
:100AA000446A456A466A476A486A496A4A6A4B6ABA
:100AB0004C6A4D6A4E6A4F6A506A516A526A536A6A
:100AC000546A556A566A576A586A596A5A6A5B6A1A
:100AD0005C6A5D6A5E6A5F6A606B616B626B636BC6
:100AE000646B656B666B676B686B696B6A6B6B6B72
:100AF0006C6B6D6B6E6B6F6B706B716B726B736B22
:100B0000746B756B766B776B786B796B7A6B7B6BD1
:100B10007C6B7D6B7E6B7F6B806B816B826B836B81
:100B2000856B866B876BD0500F0BD0A8000ED080E2
:100B3000D082D088D886D8888E6F0ED594988B981E
:100B4000949A8B9A70D6205203E11F50640803E2F6
:100B5000206A640E1F6E8E6B205203E11F508E5D63
:100B60000DE20400949C8B8CC80E8F6F7BDE949CEE
:100B70008B9CC80E8F6F76DE8E2BEED7F40E806FB7
:100B8000C00EF2128E6B8E511D0803E37FDE8E2B9A
:100B9000FAD73C0EF66E050EF76E0D0E8F6FA9D6C6
:100BA0004E0EF66E050EF76EB5D60D0E9EA8FED74C
:100BB000AD6E0A0E9EA8FED7AD6E9D86040083A57D
:100BC00001D0BAD683A102D0839160DE83A702D080
:100BD0008397F1DD83A902D0839913DEEFD7FFD786
:0200000400F00A
:080000000000000040000000B8
:020000040030CA
:0E000000002819180000090003C003E00340A7
:00000001FF
;PIC18F14K22
;CRC=6500  CREATED="19-Sep-19 14:27"
