:0400000002EF06F015
:08000800046ED8CF05F0E0CF33
:1000100006F00001E9CF0CF0EACF07F0E1CF08F0DD
:10002000E2CF09F0D9CF0AF0DACF0BF0F3CF12F01C
:10003000F4CF13F0FACF14F0F5CF15F0F6CF16F099
:10004000F7CF17F000C00EF001C00FF002C010F0A3
:1000500003C011F09DA230EF00F09EB26AEF00F0F5
:100060009DA636EF00F09EB6AEEF02F00EC000F097
:100070000FC001F010C002F011C003F00CC0E9FF86
:1000800007C0EAFF078E08C0E1FF09C0E2FF0AC00F
:10009000D9FF0BC0DAFF12C0F3FF13C0F4FF14C086
:1000A000FAFF15C0F5FF16C0F6FF17C0F7FF0450A2
:1000B00006C0E0FF05C0D8FF1000F76ACA0FF66E51
:1000C000000EF7220900F5501200342D4465632D0F
:1000D0003231000086859E9236EF00F0CB51050A42
:1000E00032E00F0A32E0060A33E02C0A36E0010A59
:1000F00043E0080A48E0030AD8B461D0010AD8B442
:1001000063D0070AD8B465D0010AD8B467D0030A0F
:10011000D8B469D0010AD8B46BD01F0AD8B46DD056
:10012000010AD8B46FD0030AD8B471D0010AD8B488
:1001300073D0070AD8B475D0010AD8B477D0030AAF
:10014000D8B479D07CD0846B7AD0916B906B77D017
:10015000CDC089F0CCC088F072D07F530CE0CD5375
:1001600003E1CC51400807E2CD5305E1CC515A08D8
:1001700002E3CCC01BF063D07F5304E0CDC01DF080
:10018000CCC01CF05CD0CC2D04D0CD5302E18687CE
:1001900015D0CC51020804E1CD5302E186890ED07E
:1001A000CC510A0806E1CD51070803E1010E7F6F2B
:1001B00005D0CC3D03D0CD3D01D0FF0040D0CDC017
:1001C0001FF0CCC01EF03BD0CDC021F0CCC020F041
:1001D00036D0CDC023F0CCC022F031D0CDC025F038
:1001E000CCC024F02CD0CDC027F0CCC026F027D036
:1001F000CDC029F0CCC028F022D0CDC02BF0CCC08F
:100200002AF01DD0CDC02DF0CCC02CF018D0CDC020
:100210002FF0CCC02EF013D0CDC031F0CCC030F0D8
:100220000ED0CDC033F0CCC032F009D0CDC035F007
:10023000CCC034F004D0CDC037F0CCC036F0EEEFF7
:1002400002F0CB51200DF350036A380F016E000EFF
:10025000032201C0CFF003C0D0F0CD6BCC6BCE6BCE
:10026000CE510F0815E3036ACEC002F0D8900236D3
:1002700003360250CF25E96ED0510320EA6EECCF51
:1002800003F0ED52EF50CC270350CD23CE2BE8D70F
:10029000080ECC25D16F000ECD21D26FD231036E66
:1002A000D131026E033202320332023203320232A1
:1002B0000F0E031602C001F003C002F01200640E1C
:1002C000876FCA51D8B46DD0010AD8B47AD0030A66
:1002D000D8B47BD0010AD8B488D0070AD8B48AD061
:1002E000010AD8B48ED0030AD8B48FD0010AD8B48A
:1002F00096D00F0AD8B498D0010AD8B49AD0030A7D
:10030000D8B49CD0010AD8B49ED0070AD8B49FD0E4
:10031000020AD8B4A1D02E0AD8B4A2D0010AD8B407
:10032000A3D0030AD8B4A5D0010AD8B4A7D0070A2D
:10033000D8B4A9D0010AD8B4ABD0030AD8B4ADD090
:10034000010AD8B4AED00F0AD8B4AFD0010AD8B4DD
:10035000B0D0030AD8B4B1D0010AD8B4B3D0070AD8
:10036000D8B4B5D0010AD8B4B7D0030AD8B4B9D03C
:10037000010AD8B4BBD01F0AD8B4BDD0010AD8B482
:10038000BFD0030AD8B4C1D0010AD8B4C3D0070A79
:10039000D8B4C5D0010AD8B4C7D0030AD8B4C9D0DC
:1003A000CDD0D8907835036A380FE96E000E03205F
:1003B000EA6EECCF03F0ED52EFCF01F003C002F094
:1003C000C0D0CB6B3EDF0250BCD0D8907835036AEA
:1003D000580FE96E000E0320EA6EECCF03F0ED52E9
:1003E000EFCF01F003C002F0ACD0010ECB6F29DFDC
:1003F0000250A7D0928A000E80AA010E016E026AF6
:10040000A0D084C001F0026A9CD07AC003F0795178
:10041000792BD8B47A2B016E03C002F092D07DC044
:1004200001F07EC002F08DD07BC001F07CC002F0F4
:1004300088D08CC001F08DC002F083D090C001F054
:1004400091C002F07ED085C001F0026A7AD088C0E7
:1004500001F089C002F075D083C001F0026A71D04A
:100460001BC001F0026A6DD01CC001F01DC002F07B
:1004700068D0500E016E000E026E63D05A0E016EEF
:10048000000E026E5ED0500E016E000E026E59D04C
:10049000030E016E000E026E54D080C001F0026A9D
:1004A00050D081C001F0026A4CD082C001F0026AD3
:1004B00048D07FC001F0026A44D01EC001F01FC0C6
:1004C00002F03FD020C001F021C002F03AD022C09B
:1004D00001F023C002F035D024C001F025C002F0A5
:1004E00030D026C001F027C002F02BD028C001F088
:1004F00029C002F026D02AC001F02BC002F021D082
:100500002CC001F02DC002F01CD02EC001F02FC075
:1005100002F017D030C001F031C002F012D032C06A
:1005200001F033C002F00DD034C001F035C002F04C
:1005300008D036C001F037C002F003D0CAC001F0C5
:10054000026AF8EF02F0C950CAC0C9FFC6889E9679
:10055000C7B0FED7016AC5AC012A1200C7BA04D0E1
:100560009A6BC7A401D09A8F9AC0C7F09A517F089E
:1005700004E09A3D01D001D09A2BC75180082EE3A8
:10058000C751800803E1C9CFC8F009D0949C8B8C77
:10059000C69CC7A0FED7C9CFC8F0949C8B9CC72D22
:1005A00003D0C8C09EF01AD0C751010817E2C75146
:1005B000800814E0C751020803E1C8C09DF00ED0C6
:1005C000C75103080BE19DC0CAF0C8C0C9F09EC066
:1005D000CBF09DC0CDF0C8C0CCF080D5C7517F080E
:1005E00017E29EB10FD0D8909E31C96FCA6F67D6FF
:1005F00002C09CF001C09BF09CC0C9F09CC0CAF036
:10060000A2DF05D09BC0C9F09BC0CAF09CDF9E2B27
:100610008D6B8C6B9E9636EF00F0700ED36E9B9CAC
:100620009B9EC050C00B0509C06EC08EC280140EC8
:100630007E6EC190C192C194C196000E7F6E2F0E46
:10064000926EF00E936E010E946E2B0E776EF19EED
:10065000786A89698869EA6AA50EE96E000E2DDD5F
:100660000A000900F550EE6E0009FBE1300EA55DB1
:100670000A0DF3CF82F0300EA65D8227A8514A08FA
:100680000FE1A951410803E1010E816F08D0AA5181
:100690004E0803E1060E816F02D0070E816F37D03E
:1006A000A851410809E1A951500803E1040E816FE6
:1006B00002D0080E816F2BD0A8514D0809E1AA5134
:1006C000520803E1030E816F02D0050E816F1FD027
:1006D000A851460803E1020E816F19D0A8515308B2
:1006E00003E1090E816F13D0A8514F0803E10A0EF0
:1006F000816F0DD0A8514E0803E10B0E816F07D01A
:10070000A851440803E10C0E816F01D08169300EBD
:10071000AC5D0A0DF3CF80F0300EAD5D8027000E8A
:100720000609CA6EF90ECB6E9D8244EF06F0AE6BE1
:10073000ADC0B0F0AC51D8B4AD07AC07AF6FAF539C
:1007400002E1B05330E0ABC003F0AA51E96E03C040
:10075000EAFFA951036EA851A82BD8B4A92BB16FF9
:1007600003C0B2F0F2CFB3F0F29EB1C0A9FFA69CD5
:10077000A69EA680A850B3BFF28EEF6EABC003F06A
:10078000AA51E96E03C0EAFFEFCFAFF0AEC0B1F0FF
:10079000AFC0B2F0B151B219016E01C0AEF0AA2BD8
:1007A000D8B4AB2BC5D7AEC001F082EF04F0AF6B6D
:1007B000AEC0B1F0AD51D8B4AE07AD07B06FB05315
:1007C00002E1B1533CE0ACC003F0AB51E96E03C0B1
:1007D000EAFFEFCFB0F0AFC0B1F0B0C0B2F0B151AE
:1007E000B219016E01C0AFF0AA51036EA951A92B35
:1007F000D8B4AA2BB06F03C0B1F0AC51036EAB51AB
:10080000AB2BD8B4AC2BE96E03C0EAFFEFCFB2F04C
:10081000F250006EF29EB0C0A9FFB2C0A8FFA69C25
:10082000A69EA6840F01550EA76EAA0EA76EA682DD
:10083000A6B2FED7A6940050F2120001B9D7AFC0FD
:1008400001F02FEF04F01B0EA76FAA6B020EA96F29
:10085000AC6BA7C0ABF0AE6B1D0EAD6FA8D701C0DF
:10086000A6F0F250006EF29EA96AA6C0A8FFA69C50
:10087000A69EA6840F01550EA76EAA0EA76EA6828D
:10088000A6B2FED7A6940050F21200011200010E8B
:10089000856F960E876F500E1B6E260E1D6E910E85
:1008A0001C6E1F6A140E1E6E216A050E206E236ACE
:1008B000020E226E25682468276A266E2968286839
:1008C0002B6A2A6E2D6ABE0E2C6E2F682E68316A36
:1008D000C80E306E030E336EE80E326E3568346823
:1008E000030E376E840E366EAEDF12001B0EA66F3F
:1008F000A96B020EA86FAB6BA6C0AAF0AD6B1D0E64
:10090000AC6F15D701C0A5F0F2CFA6F0F29EA96A90
:10091000A69CA69EA680A850A6BFF28EA55D01E06B
:10092000B6DF49EF06F0EA6AA50EE96EEF500EE079
:10093000050E016E006A002EFED7012EFBD72E0E8B
:10094000006E002EFED700D0EF2EF2D71200782BCB
:1009500078510F0801E2786B100E016EC250C30B84
:100960000110C26ED8907835036A380FE96E000E18
:100970000320EA6EC282C2B2FED7C3CFEFFFC4CF5C
:10098000ECFF080E016EC250C30B0110C26E010EC7
:10099000A56FC9DFD8907835036A580FE96E000E4D
:1009A0000320EA6EC282C2B2FED7C3CFEFFFC4CF2C
:1009B000ECFF12008695928A80BA02D0010E846FF5
:1009C000875303E194948B9403D094948B8487078A
:1009D0007D3D03D07E3D01D003D07D2BD8B47E2B4E
:1009E000A22BD8B4A32BA251E808D8A4F8D0A351C5
:1009F0000308D8A4F4D0A36BA26B883D03D0893D33
:100A000001D01DD0885302E1895305E08851D8B444
:100A10008907880714D083B106D0838123C08BF067
:100A200022C08AF00CD08A5306E18B5304E18391F3
:100A30008969886904D08A51D8B48B078A078C3DAC
:100A400003D08D3D01D003D08C2BD8B48D2B903D9D
:100A500003D0913D01D003D0902BD8B4912B2550D9
:100A60008D5D19E303E18C51245C15E283B306D05C
:100A7000838327C08FF026C08EF00CD08E5306E102
:100A80008F5304E183938D6B8C6B04D08E51D8B45B
:100A90008F078E0701D083932950915D19E303E1FD
:100AA0009051285C15E283B506D083852BC093F066
:100AB0002AC092F00CD0925306E1935304E183953F
:100AC000916B906B04D09251D8B49307920701D0E8
:100AD00083952E3C03D02F3C01D032D0196AF2BE50
:100AE000198EF29ECB6B21EC01F019BEF28E02C082
:100AF000A6F001C0A5F03150A65D0AE303E1A551BF
:100B0000305C06E2965302E0960701D0839702D04C
:100B1000050E966FA6512D5C0FE303E12C50A55DE9
:100B20000BE2945302E1955305E09451D8B4950734
:100B3000940701D0838704D02FC095F02EC094F085
:100B4000343C03D0353C01D032D0196AF2BE198E44
:100B5000F29ECB6B21EC01F019BEF28E02C0A6F022
:100B600001C0A5F0A651375C0AE303E13650A55D4C
:100B700006E2995302E0990701D0839902D0050E4D
:100B8000996F3350A65D0FE303E1A551325C0BE290
:100B9000975302E1985305E09751D8B49807970707
:100BA00001D0838904D035C098F034C097F08353C6
:100BB00005E094988B98949A8B9A04D094988B889B
:100BC000949A8B8A9F2B9F513C0809E19F6B7B3D38
:100BD00003D07C3D01D003D07B2BD8B47C2B86A3E3
:100BE00003D08693A16BA06BA02BD8B4A12B1E5071
:100BF000A05D06E11F50A15D03E1A16BA06B8681A2
:100C000074EF06F0F86AD09E078E938C9388340EAA
:100C1000C86E360EC66EC58E1A6AB886A00EAF6E46
:100C2000010EB06EA60EAC6E900EAB6E000E7E6E18
:100C3000C190C192C194C1967F6E6C6A6B6A6D6AF5
:100C400003D089401B000000000EF86E0C0EF76EFA
:100C5000420EF66E0900F550006E000A13E009001E
:100C6000F550016EE8BE05D03F0BEA6E0900F5CFE6
:100C7000E9FF01BC090001AC0900F5CFEEFF004E11
:100C8000E9D7F9D7F86AC9D494988B98949A8B9A33
:100C90002DD6215203E12050640803E2216A640E3C
:100CA000206EA46B215203E12050A45D0DE20400EC
:100CB00094948B84C80EA56F36DE94948B94C80EE2
:100CC000A56F31DEA42BEED7F40E876FC00EF212A3
:100CD000A46BA4511D0803E33ADEA42BFAD79D862A
:100CE000040086A501D066D686A102D086912FDEAB
:100CF00086A702D08697A7DD86A902D08699C7DD90
:040D0000EFD7FFD753
:0200000400F00A
:0400000000004000BC
:020000040030CA
:0E000000002819180000090003C003E00340A7
:00000001FF
;PIC18F14K22
;CRC=7CEC  CREATED="04-Dec-21 21:35"
