:04000000A8EF05F070
:08000800046ED8CF05F0E0CF33
:1000100006F00001E9CF0CF0EACF07F0E1CF08F0DD
:10002000E2CF09F0D9CF0AF0DACF0BF0F3CF12F01C
:10003000F4CF13F0FACF14F0F5CF15F0F6CF16F099
:10004000F7CF17F000C00EF001C00FF002C010F0A3
:1000500003C011F09DA230EF00F09EB26AEF00F0F5
:100060009DA636EF00F09EB697EF02F00EC000F0AE
:100070000FC001F010C002F011C003F00CC0E9FF86
:1000800007C0EAFF078E08C0E1FF09C0E2FF0AC00F
:10009000D9FF0BC0DAFF12C0F3FF13C0F4FF14C086
:1000A000FAFF15C0F5FF16C0F6FF17C0F7FF0450A2
:1000B00006C0E0FF05C0D8FF1000F76ACA0FF66E51
:1000C000000EF7220900F550120032302D536570F2
:1000D0002D31390081859E9236EF00F0C351050A1B
:1000E00029E00F0A29E0060A2AE02C0A2DE0010A7D
:1000F0003AE0080A3FE0030AD8B458D0010AD8B45D
:100100005AD0070AD8B45CD0010AD8B45ED0030A2A
:10011000D8B460D0010AD8B462D01F0AD8B464D071
:10012000010AD8B466D0030AD8B468D0010AD8B49A
:100130006AD06DD07F6B6BD08C6B8B6B68D0C5C079
:1001400084F0C4C083F063D079530CE0C55303E15D
:10015000C451400807E2C55305E1C4515A0802E3FF
:10016000C4C01BF054D0795304E0C5C01DF0C4C016
:100170001CF04DD0C42D04D0C55302E1818715D0A9
:10018000C451020804E1C55302E181890ED0C45173
:100190000A0806E1C551070803E1010E796F05D091
:1001A000C43D03D0C53D01D0FF0031D0C5C01FF014
:1001B000C4C01EF02CD0C5C021F0C4C020F027D090
:1001C000C5C023F0C4C022F022D0C5C025F0C4C0F1
:1001D00024F01DD0C5C027F0C4C026F018D0C5C07B
:1001E00029F0C4C028F013D0C5C02BF0C4C02AF039
:1001F0000ED0C5C02DF0C4C02CF009D0C5C02FF062
:10020000C4C02EF004D0C5C031F0C4C030F0CDEF72
:1002100002F0C351200DF350036A320F016E000E3D
:10022000032201C0C7F003C0C8F0C56BC46BC66B26
:10023000C6510F0811E3D890C635036AC725E96E89
:10024000C8510320EA6EECCF03F0ED52EF50C42703
:100250000350C523C62BECD7080EC425C96F000E6A
:10026000C521CA6FCA31036EC931026E0332023230
:1002700003320232033202320F0E031602C001F0C3
:1002800003C002F01200640E826FC251D8B467D06E
:10029000010AD8B474D0030AD8B475D0010AD8B40E
:1002A00082D0070AD8B484D0010AD8B48AD0030A0D
:1002B000D8B48DD0010AD8B494D00F0AD8B496D04F
:1002C000010AD8B498D0030AD8B49AD0010AD8B495
:1002D0009CD0070AD8B49FD0020AD8B4A1D0010A92
:1002E000D8B4A4D02F0AD8B4A7D0010AD8B4AAD0C1
:1002F000030AD8B4ACD0010AD8B4AED0070AD8B437
:10030000B0D0010AD8B4B2D0030AD8B4B4D0010A2C
:10031000D8B4B7D00F0AD8B4BAD0010AD8B4BDD077
:10032000030AD8B4C0D0010AD8B4C2D0070AD8B4DE
:10033000C4D0010AD8B4C6D0030AD8B4C8D0010AC0
:10034000D8B4CAD01F0AD8B4CCD0010AD8B4CED001
:10035000030AD8B4D0D0010AD8B4D2D0D6D0D8901D
:100360007235036A320FE96E000E0320EA6EECCF9D
:1003700003F0ED52EFCF01F003C002F0CBD0C36B1E
:1003800048DF0250C7D0D8907235036A520FE96E29
:10039000000E0320EA6EECCF03F0ED52EFCF01F038
:1003A00003C002F0B7D0010EC36F33DF0250B2D0EA
:1003B000928A000E80AA010E036A016E03C002F049
:1003C000A9D0036A7FC001F003C002F0A3D074C0BB
:1003D00003F07351732BD8B4742B016E03C002F079
:1003E00099D077C001F078C002F094D075C001F0C8
:1003F00076C002F08FD087C001F088C002F08AD0AA
:100400008BC001F08CC002F085D0036A80C001F07F
:1004100003C002F07FD083C001F084C002F07AD024
:10042000036A7DC001F003C002F074D0036A7EC08D
:1004300001F003C002F06ED0036A1BC001F003C0DC
:1004400002F068D01CC001F01DC002F063D0500E55
:10045000016E000E026E5ED05A0E016E000E026E2C
:1004600059D0500E016E000E026E54D0030E016E74
:10047000000E026E4FD0036A7AC001F003C002F092
:1004800049D0036A7BC001F003C002F043D0036A85
:100490007CC001F003C002F03DD0036A79C001F0D6
:1004A00003C002F037D01EC001F01FC002F032D0EE
:1004B00020C001F021C002F02DD022C001F023C0E5
:1004C00002F028D024C001F025C002F023D026C0BD
:1004D00001F027C002F01ED028C001F029C002F0B0
:1004E00019D02AC001F02BC002F014D02CC001F0AA
:1004F0002DC002F00FD02EC001F02FC002F00AD0A4
:1005000030C001F031C002F005D0036AC2C001F072
:1005100003C002F0D7EF02F0C950C2C0C9FFC688BD
:100520009E96C7B0FED7016AC6B8012A1200C7BAA4
:1005300003D0966BC7B4968F9651962BC06FC0515F
:1005400080082BE3C051800803E1C9CFBFF006D07B
:10055000C69C9EA6FED7C950C688BF6FC02D03D0CB
:10056000BFC092F01AD0C051010817E2C0518008F4
:1005700014E0C051020803E1BFC095F00ED0C05195
:1005800003080BE195C0C2F0BFC0C1F092C0C3F038
:1005900095C0C5F0BFC0C4F0A1D5C0517F0817E217
:1005A00092B10FD0D8909231C16FC26F6CD602C099
:1005B00094F001C093F094C0C1F094C0C2F0ACDFDD
:1005C00005D093C0C1F093C0C2F0A6DF922B886B18
:1005D000876B9E9636EF00F0700ED36E9B9C9B9EB1
:1005E000C050C00B0509C06EC08EC280140E7E6E56
:1005F000C190C192C194C196000E7F6E2F0E926E73
:10060000700E936E010E946E2B0E776EF19E786ACB
:1006100084698369EA6A9D0EE96E000E4EDD0A0068
:100620000900F550EE6E0009FBE1300E9D5D0A0DEC
:10063000F3CF7CF0300E9E5D7C27A0514A080FE17D
:10064000A151410803E1010E7B6F08D0A2514E0871
:1006500003E1060E7B6F02D0070E7B6F37D0A051EF
:10066000410809E1A151500803E1040E7B6F02D05B
:10067000080E7B6F2BD0A0514D0809E1A251520802
:1006800003E1030E7B6F02D0050E7B6F1FD0A051DC
:10069000460803E1020E7B6F19D0A051530803E115
:1006A000090E7B6F13D0A0514F0803E10A0E7B6F38
:1006B0000DD0A0514E0803E10B0E7B6F07D0A05167
:1006C000440803E10C0E7B6F01D07B69300EA45D02
:1006D0000A0DF3CF7AF0300EA55D7A27000E0609D9
:1006E000CA6EF90ECB6E9D8249EF06F0A66BA5C0CF
:1006F00003F0A451D8B4A507A407A76F03C0A8F0BE
:10070000A75302E1A85330E0A3C003F0A251E96E61
:1007100003C0EAFFA151036EA051A02BD8B4A12BB6
:10072000A96F03C0AAF0F2CFABF0F29EA9C0A9FF57
:10073000A69CA69EA680A850ABBFF28EEF6EA3C06B
:1007400003F0A251E96E03C0EAFFEFCFA7F0A6C005
:10075000A9F0A7C0AAF0A951AA19016E01C0A6F07C
:10076000A22BD8B4A32BC3D7A6C001F05FEF04F02F
:10077000A76BA6C003F0A551D8B4A607A507A86F1C
:1007800003C0A9F0A85302E1A9533CE0A4C003F0C0
:10079000A351E96E03C0EAFFEFCFA8F0A7C0A9F00C
:1007A000A8C0AAF0A951AA19016E01C0A7F0A251D0
:1007B000036EA151A12BD8B4A22BA86F03C0A9F03E
:1007C000A451036EA351A32BD8B4A42BE96E03C08C
:1007D000EAFFEFCFAAF0F250006EF29EA8C0A9FF88
:1007E000AAC0A8FFA69CA69EA6840F01550EA76EC0
:1007F000AA0EA76EA682A6B2FED7A6940050F21249
:100800000001B7D7A7C001F014EF04F0A06B1B0ED6
:100810009F6FA26B020EA16FA0C0A4F09FC0A3F0B7
:10082000A66B170EA56FA4D701C09EF0F250006E04
:10083000F29EA96A9EC0A8FFA69CA69EA6840F0150
:10084000550EA76EAA0EA76EA682A6B2FED7A694D4
:100850000050F21200011200010E806F960E826F9E
:10086000500E1B6E260E1D6E910E1C6E1F6A140E0E
:100870001E6E216A050E206E236A020E226E256806
:100880002468276A266E296828682B6A2A6E2D6AD2
:10089000BE0E2C6E2F682E68316AC80E306EB6DF21
:1008A00012009F6B1B0E9E6FA16B020EA06F9FC06C
:1008B000A3F09EC0A2F0A56B170EA46F17D701C0BE
:1008C0009DF0F2CF9EF0F29EA96AA69CA69EA680FD
:1008D000A8509EBFF28E9D5D01E0BEDF4EEF06F098
:1008E000EA6A9D0EE96EEF500EE0050E016E006A99
:1008F000002EFED7012EFBD72E0E006E002EFED747
:1009000000D0EF2EF2D71200722B72510F0801E2C5
:10091000726B100E016EC250C30B0110C26ED890E4
:100920007235036A320FE96E000E0320EA6EC2824E
:10093000C2B2FED7C3CFEFFFC4CFECFF080E016EEB
:10094000C250C30B0110C26E010E9D6FC9DFD8905B
:100950007235036A520FE96E000E0320EA6EC282FE
:10096000C2B2FED7C3CFEFFFC4CFECFF1200819518
:10097000928A80BA02D0010E7F6F825303E1949C69
:100980008B9C03D0949C8B8C8207773D03D0783D61
:1009900001D003D0772BD8B4782B9A2BD8B49B2BCB
:1009A0009A51E808D8A4C1D09B510308D8A4BDD05F
:1009B0009B6B9A6B833D03D0843D01D01DD0835344
:1009C00002E1845305E08351D8B48407830714D02F
:1009D0007DB106D07D8123C086F022C085F00CD089
:1009E000855306E1865304E17D918469836904D0CF
:1009F0008551D8B486078507873D03D0883D01D04F
:100A000003D0872BD8B4882B8B3D03D08C3D01D0ED
:100A100003D08B2BD8B48C2B2550885D19E303E1D0
:100A20008751245C15E27DB306D07D8327C08AF010
:100A300026C089F00CD0895306E18A5304E17D93E6
:100A4000886B876B04D08951D8B48A07890701D095
:100A50007D9329508C5D19E303E18B51285C15E2ED
:100A60007DB506D07D852BC08EF02AC08DF00CD0D0
:100A70008D5306E18E5304E17D958C6B8B6B04D016
:100A80008D51D8B48E078D0701D07D952E3C03D0B3
:100A90002F3C01D032D0196AF2BE198EF29EC36B80
:100AA00009EC01F019BEF28E02C09EF001C09DF06B
:100AB00031509E5D0AE303E19D51305C06E29153A3
:100AC00002E0910701D07D9702D0050E916F9E51F3
:100AD0002D5C0FE303E12C509D5D0BE28F5302E18F
:100AE000905305E08F51D8B490078F0701D07D87D0
:100AF00004D02FC090F02EC08FF07D5305E0949865
:100B00008B98949A8B9A04D094988B88949A8B8A19
:100B1000972B97513C0809E1976B753D03D0763DC3
:100B200001D003D0752BD8B4762B81A303D0819349
:100B3000996B986B982BD8B4992B1E50985D06E151
:100B40001F50995D03E1996B986B818179EF06F0F5
:100B5000F86AD09E078EEA6AE96A938C9388340E0D
:100B6000C86E360EC66EC5801A6AB886A00EAF6E05
:100B7000010EB06EA60EAC6E900EAB6E030E966FAD
:100B8000976B996B986B9B6B9A6B000E7E6EC19006
:100B9000C192C194C1967F6E6B6A6D6A1B6A1C6AB2
:100BA0001D6A1E6A1F6A206A216A226A236A246AF1
:100BB000256A266A276A286A296A2A6A2B6A2C6AA1
:100BC0002D6A2E6A2F6A306A316A326A336A346A51
:100BD000356A366A376A386A396A3A6A3B6A3C6A01
:100BE0003D6A3E6A3F6A406A416A426A436A446AB1
:100BF000456A466A476A486A496A4A6A4B6A4C6A61
:100C00004D6A4E6A4F6A506A516A526A536A546A10
:100C1000556A566A576A586A596A5A6A5B6A5C6AC0
:100C20005D6A5E6A5F6A606B616B626B636B646B6B
:100C3000656B666B676B686B696B6A6B6B6B6C6B18
:100C40006D6B6E6B6F6B706B716B726B736B746BC8
:100C5000756B766B776B786B796B7A6B7B6B7C6B78
:100C60007D6B7E6B7F6B806B816B826B836B846B28
:100C7000856B866B876B886B896B8A6B8B6B8C6BD8
:100C80008D6B8E6B8F6B906B916B936B946B956B85
:100C9000A3D494988B98949A8B9A03D6215203E10B
:100CA0002050640803E2216A640E206E9C6B21527E
:100CB00003E120509C5D0DE20400949C8B8CC80ED7
:100CC0009D6F0EDE949C8B9CC80E9D6F09DE9C2B45
:100CD000EED7F40E826FC00EF2129C6B9C511D0871
:100CE00003E312DE9C2BFAD79D86040081A501D078
:100CF0003ED681A102D0819107DE81A702D08197E3
:0E0D000085DD81A902D08199A7DDEFD7FFD74D
:0200000400F00A
:080000000000000040000000B8
:020000040030CA
:0E000000002819180000090003C003E00340A7
:00000001FF
;PIC18F14K22
;CRC=1DF3  CREATED="20-Sep-19 17:18"
