:040000007DEF06F09A
:08000800046ED8CF05F0E0CF33
:1000100006F00001E9CF0CF0EACF07F0E1CF08F0DD
:10002000E2CF09F0D9CF0AF0DACF0BF0F3CF12F01C
:10003000F4CF13F0FACF14F0F5CF15F0F6CF16F099
:10004000F7CF17F000C00EF001C00FF002C010F0A3
:1000500003C011F09DA230EF00F09EB26AEF00F0F5
:100060009DA636EF00F09EB6AEEF02F00EC000F097
:100070000FC001F010C002F011C003F00CC0E9FF86
:1000800007C0EAFF078E08C0E1FF09C0E2FF0AC00F
:10009000D9FF0BC0DAFF12C0F3FF13C0F4FF14C086
:1000A000FAFF15C0F5FF16C0F6FF17C0F7FF0450A2
:1000B00006C0E0FF05C0D8FF1000F76ACA0FF66E51
:1000C000000EF7220900F5501200392D4665622D09
:1000D0003232000086859E9236EF00F0CC51050A40
:1000E00032E00F0A32E0060A33E02C0A36E0010A59
:1000F00043E0080A48E0030AD8B461D0010AD8B442
:1001000063D0070AD8B465D0010AD8B467D0030A0F
:10011000D8B469D0010AD8B46BD01F0AD8B46DD056
:10012000010AD8B46FD0030AD8B471D0010AD8B488
:1001300073D0070AD8B475D0010AD8B477D0030AAF
:10014000D8B479D07CD0846B7AD0916B906B77D017
:10015000CEC089F0CDC088F072D07F530CE0CE5372
:1001600003E1CD51400807E2CE5305E1CD515A08D5
:1001700002E3CDC01BF063D07F5304E0CEC01DF07E
:10018000CDC01CF05CD0CD2D04D0CE5302E18687CB
:1001900015D0CD51020804E1CE5302E186890ED07C
:1001A000CD510A0806E1CE51070803E1010E7F6F29
:1001B00005D0CD3D03D0CE3D01D0FF0040D0CEC014
:1001C0001FF0CDC01EF03BD0CEC021F0CDC020F03E
:1001D00036D0CEC023F0CDC022F031D0CEC025F035
:1001E000CDC024F02CD0CEC027F0CDC026F027D033
:1001F000CEC029F0CDC028F022D0CEC02BF0CDC08B
:100200002AF01DD0CEC02DF0CDC02CF018D0CEC01D
:100210002FF0CDC02EF013D0CEC031F0CDC030F0D5
:100220000ED0CEC033F0CDC032F009D0CEC035F004
:10023000CDC034F004D0CEC037F0CDC036F0EAEFF8
:1002400002F0CC51200DF350036A380F016E000EFE
:10025000032201C0D0F003C0D1F0CE6BCD6BCF6BC9
:10026000CF510F0815E3036ACFC002F0D8900236D1
:1002700003360250D025E96ED1510320EA6EECCF4F
:1002800003F0ED52EF50CD270350CE23CF2BE8D70C
:10029000080ECD25D26F000ECE21D36FD331036E61
:1002A000D231026E033202320332023203320232A0
:1002B0000F0E031602C001F003C002F01200640E1C
:1002C000876FCB51D8B46DD0010AD8B47AD0030A65
:1002D000D8B47BD0010AD8B488D0070AD8B48AD061
:1002E000010AD8B48ED0030AD8B48FD0010AD8B48A
:1002F00096D00F0AD8B498D0010AD8B49AD0030A7D
:10030000D8B49CD0010AD8B49ED0070AD8B49FD0E4
:10031000020AD8B4A1D02E0AD8B4A2D0010AD8B407
:10032000A3D0030AD8B4A5D0010AD8B4A7D0070A2D
:10033000D8B4A9D0010AD8B4ABD0030AD8B4ADD090
:10034000010AD8B4AED00F0AD8B4AFD0010AD8B4DD
:10035000B0D0030AD8B4B1D0010AD8B4B3D0070AD8
:10036000D8B4B5D0010AD8B4B7D0030AD8B4B9D03C
:10037000010AD8B4BBD01F0AD8B4BDD0010AD8B482
:10038000BFD0030AD8B4C1D0010AD8B4C3D0070A79
:10039000D8B4C5D0010AD8B4C7D0030AD8B4C9D0DC
:1003A000CDD0D8907835036A380FE96E000E03205F
:1003B000EA6EECCF03F0ED52EFCF01F003C002F094
:1003C000C0D0CC6B3EDF0250BCD0D8907835036AE9
:1003D000580FE96E000E0320EA6EECCF03F0ED52E9
:1003E000EFCF01F003C002F0ACD0010ECC6F29DFDB
:1003F0000250A7D0928A000E80AA010E016E026AF6
:10040000A0D084C001F0026A9CD07AC003F0795178
:10041000792BD8B47A2B016E03C002F092D07DC044
:1004200001F07EC002F08DD07BC001F07CC002F0F4
:1004300088D08CC001F08DC002F083D090C001F054
:1004400091C002F07ED085C001F0026A7AD088C0E7
:1004500001F089C002F075D083C001F0026A71D04A
:100460001BC001F0026A6DD01CC001F01DC002F07B
:1004700068D0500E016E000E026E63D05A0E016EEF
:10048000000E026E5ED0500E016E000E026E59D04C
:10049000030E016E000E026E54D080C001F0026A9D
:1004A00050D081C001F0026A4CD082C001F0026AD3
:1004B00048D07FC001F0026A44D01EC001F01FC0C6
:1004C00002F03FD020C001F021C002F03AD022C09B
:1004D00001F023C002F035D024C001F025C002F0A5
:1004E00030D026C001F027C002F02BD028C001F088
:1004F00029C002F026D02AC001F02BC002F021D082
:100500002CC001F02DC002F01CD02EC001F02FC075
:1005100002F017D030C001F031C002F012D032C06A
:1005200001F033C002F00DD034C001F035C002F04C
:1005300008D036C001F037C002F003D0CBC001F0C4
:10054000026AF4EF02F0C950CBC0C9FFC6889E967C
:10055000C7B0FED7016AC5AC012A1200C7BA04D0E1
:100560009A6BC7A401D09A8F9AC0C8F09A517F089D
:1005700004E09A3D01D001D09A2BC85180082AE3AB
:10058000C851800803E1C9CFC9F005D0C69CC7A0F7
:10059000FED7C9CFC9F0C82D03D0C9C09EF01AD06C
:1005A000C851010817E2C851800814E0C851020878
:1005B00003E1C9C09DF00ED0C85103080BE19DC0F6
:1005C000CBF0C9C0CAF09EC0CCF09DC0CEF0C9C06F
:1005D000CDF084D5C8517F0817E29EB10FD0D890D6
:1005E0009E31CA6FCB6F6BD602C09CF001C09BF0EE
:1005F0009CC0CAF09CC0CBF0A6DF05D09BC0CAF05F
:100600009BC0CBF0A0DF9E2B8D6B8C6B9E9636EF44
:1006100000F0700ED36E9B9C9B9EC050C00B0509D2
:10062000C06EC08EC280140E7E6EC190C192C19405
:10063000C196000E7F6E2F0E926EF00E936E010E1D
:10064000946E2B0E776EF19E786A89698869EA6AE2
:10065000A60EE96E000E31DD0A000900F550EE6EBF
:100660000009FBE1A56BA7512D080DE0036AA55118
:10067000A60FE96E000E0320EA6E300EEF5C0A0D45
:10068000F3CF82F0A52B036AA551A60FE96E000EE9
:100690000320EA6E300EEF5C8227020EA527036A64
:1006A000A551A60FE96E000E0320EA6EEF504A082E
:1006B0001FE1010EA525036AA60FE96E000E0320B7
:1006C000EA6EEF50410803E1010E816F10D0020E77
:1006D000A525036AA60FE96E000E0320EA6EEF500F
:1006E0004E0803E1060E816F02D0070E816F78D0AD
:1006F000036AA551A60FE96E000E0320EA6EEF50C3
:10070000410811E1010EA525036AA60FE96E000E4E
:100710000320EA6EEF50500803E1040E816F02D00F
:10072000080E816F5DD0036AA551A60FE96E000E19
:100730000320EA6EEF504D0811E1020EA525036A71
:10074000A60FE96E000E0320EA6EEF50520803E197
:10075000030E816F02D0050E816F42D0036AA5514E
:10076000A60FE96E000E0320EA6EEF50460803E183
:10077000020E816F35D0036AA551A60FE96E000EF7
:100780000320EA6EEF50530803E1090E816F28D071
:10079000036AA551A60FE96E000E0320EA6EEF5022
:1007A0004F0803E10A0E816F1BD0036AA551A60F03
:1007B000E96E000E0320EA6EEF504E0803E10B0EC7
:1007C000816F0ED0036AA551A60FE96E000E0320BB
:1007D000EA6EEF50440803E10C0E816F01D081698D
:1007E000040EA525036AA60FE96E000E0320EA6E2B
:1007F000300EEF5C0A0DF3CF80F0050EA525036ADD
:10080000A60FE96E000E0320EA6E300EEF5C802723
:10081000000E0609CA6EF90ECB6E9D82BFEF06F080
:10082000AE6BADC0B0F0AC51D8B4AD07AC07AF6F94
:10083000AF5302E1B05330E0ABC003F0AA51E96E10
:1008400003C0EAFFA951036EA851A82BD8B4A92B65
:10085000B16F03C0B2F0F2CFB3F0F29EB1C0A9FF06
:10086000A69CA69EA680A850B3BFF28EEF6EABC02A
:1008700003F0AA51E96E03C0EAFFEFCFAFF0AEC0BC
:10088000B1F0AFC0B2F0B151B219016E01C0AEF01B
:10089000AA2BD8B4AB2BC5D7AEC001F0FDEF04F046
:1008A000AF6BAEC0B1F0AD51D8B4AE07AD07B06F0D
:1008B000B05302E1B1533CE0ACC003F0AB51E96E80
:1008C00003C0EAFFEFCFB0F0AFC0B1F0B0C0B2F0FC
:1008D000B151B219016E01C0AFF0AA51036EA95116
:1008E000A92BD8B4AA2BB06F03C0B1F0AC51036EE2
:1008F000AB51AB2BD8B4AC2BE96E03C0EAFFEFCF02
:10090000B2F0F250006EF29EB0C0A9FFB2C0A8FFD4
:10091000A69CA69EA6840F01550EA76EAA0EA76ED2
:10092000A682A6B2FED7A6940050F2120001B9D753
:10093000AFC001F0A8EF04F01B0EA76FAA6B020E68
:10094000A96FAC6BA7C0ABF0AE6B1D0EAD6FA8D797
:1009500001C0A6F0F250006EF29EA96AA6C0A8FFE0
:10096000A69CA69EA6840F01550EA76EAA0EA76E82
:10097000A682A6B2FED7A6940050F2120001120081
:10098000010E856F960E876F500E1B6E260E1D6E24
:10099000910E1C6E1F6A140E1E6E216A050E206ECB
:1009A000236A020E226E2568FA0E246E276A020E52
:1009B000266E296828682B6A2A6E2D6ABE0E2C6E58
:1009C0002F682E68316AC80E306E030E336EE80E43
:1009D000326E35683468030E376E840E366EACDFC7
:1009E00012001B0EA66FA96B020EA86FAB6BA6C000
:1009F000AAF0AD6B1D0EAC6F13D701C0A5F0F2CFFE
:100A0000A6F0F29EA96AA69CA69EA680A850A6BFA4
:100A1000F28EA55D01E0B4DFC4EF06F0EA6AA50E30
:100A2000E96EEF500EE0050E016E006A002EFED753
:100A3000012EFBD72E0E006E002EFED700D0EF2E1B
:100A4000F2D71200782B78510F0801E2786B100E64
:100A5000016EC250C30B0110C26ED8907835036A84
:100A6000380FE96E000E0320EA6EC282C2B2FED7D2
:100A7000C3CFEFFFC4CFECFF080E016EC250C30B13
:100A80000110C26E010EA56FC9DFD8907835036AD8
:100A9000580FE96E000E0320EA6EC282C2B2FED782
:100AA000C3CFEFFFC4CFECFF12008695928A80BAC5
:100AB00002D0010E846F875303E1949C8B9C03D07A
:100AC000949C8B8C87077D3D03D07E3D01D003D065
:100AD0007D2BD8B47E2BA22BD8B4A32BA251E8082F
:100AE000D8A4F8D0A3510308D8A4F4D0A36BA26B68
:100AF000883D03D0893D01D01DD0885302E1895340
:100B000005E08851D8B48907880714D083B106D08E
:100B1000838123C08BF022C08AF00CD08A5306E177
:100B20008B5304E183918969886904D08A51D8B4D0
:100B30008B078A078C3D03D08D3D01D003D08C2BD1
:100B4000D8B48D2B903D03D0913D01D003D0902B94
:100B5000D8B4912B25508D5D19E303E18C51245CB1
:100B600015E283B306D0838327C08FF026C08EF0B2
:100B70000CD08E5306E18F5304E183938D6B8C6B05
:100B800004D08E51D8B48F078E0701D0839329509B
:100B9000915D19E303E19051285C15E283B506D01D
:100BA00083852BC093F02AC092F00CD0925306E1BB
:100BB000935304E18395916B906B04D09251D8B418
:100BC0009307920701D083952E3C03D02F3C01D090
:100BD00032D0196AF2BE198EF29ECC6B21EC01F074
:100BE00019BEF28E02C0A6F001C0A5F03150A65D7C
:100BF0000AE303E1A551305C06E2965302E0960752
:100C000001D0839702D0050E966FA6512D5C0FE39D
:100C100003E12C50A55D0BE2945302E1955305E0EE
:100C20009451D8B49507940701D0838704D02FC07E
:100C300095F02EC094F0343C03D0353C01D032D036
:100C4000196AF2BE198EF29ECC6B21EC01F019BE2E
:100C5000F28E02C0A6F001C0A5F0A651375C0AE3EF
:100C600003E13650A55D06E2995302E0990701D0F1
:100C7000839902D0050E996F3350A65D0FE303E10F
:100C8000A551325C0BE2975302E1985305E097516E
:100C9000D8B49807970701D0838904D035C098F05D
:100CA00034C097F0835305E094988B98949A8B9A6C
:100CB00004D094988B88949A8B8A9F2B9F513C08E0
:100CC00009E19F6B7B3D03D07C3D01D003D07B2BA2
:100CD000D8B47C2B86A303D08693A16BA06BA02BEA
:100CE000D8B4A12B1E50A05D06E11F50A15D03E109
:100CF000A16BA06B8681EFEF06F0F86AD09E078E9D
:100D0000938C9388340EC86E360EC66EC58E1A6AE2
:100D1000B886A00EAF6E010EB06EA60EAC6E900E31
:100D2000AB6E000E7E6EC190C192C194C1967F6E73
:100D30006C6A6B6A6D6A03D089401B000000000E6C
:100D4000F86E0D0EF76E380EF66E0900F550006E57
:100D5000000A13E00900F550016EE8BE05D03F0B14
:100D6000EA6E0900F5CFE9FF01BC090001AC0900FA
:100D7000F5CFEEFF004EE9D7F9D7F86A4AD4949838
:100D80008B98949A8B9A2DD6215203E120506408B7
:100D900003E2216A640E206EA46B215203E120500D
:100DA000A45D0DE20400949C8B8CC80EA56F36DE0A
:100DB000949C8B9CC80EA56F31DEA42BEED7F40E4D
:100DC000876FC00EF212A46BA4511D0803E33ADE34
:100DD000A42BFAD79D86040086A501D066D686A1ED
:100DE00002D086912FDE86A702D08697A5DD86A940
:0A0DF00002D08699C5DDEFD703009D
:0200000400F00A
:0400000000004000BC
:020000040030CA
:0E000000000801130000810003C003E003406C
:00000001FF
;PIC18F14K22
;CRC=20C6  CREATED="09-Feb-22 13:20"
