:040000007CEF03F09E
:08000800046ED8CF05F0E0CF33
:1000100006F00001E9CF0CF0EACF07F0E1CF08F0DD
:10002000E2CF09F0D9CF0AF0DACF0BF0F3CF12F01C
:10003000F4CF13F0FACF14F0F5CF15F0F6CF16F099
:10004000F7CF17F000C00EF001C00FF002C010F0A3
:1000500003C011F09DA230EF00F09EB25DEF00F002
:100060009DA636EF00F09EB68FEF01F00EC000F0B7
:100070000FC001F010C002F011C003F00CC0E9FF86
:1000800007C0EAFF078E08C0E1FF09C0E2FF0AC00F
:10009000D9FF0BC0DAFF12C0F3FF13C0F4FF14C086
:1000A000FAFF15C0F5FF16C0F6FF17C0F7FF0450A2
:1000B00006C0E0FF05C0D8FF100087859E9236EF8E
:1000C00000F0A651050A05E0250A05E0010A10E046
:1000D00013D0836B11D0A85303E1A751400807E266
:1000E000A85305E1A7515A0802E3A7C01AF004D0AB
:1000F000A8C01CF0A7C01BF0C5EF01F0A651200D51
:10010000F350036A300F016E000E032201C0AAF003
:1001100003C0ABF0A86BA76BA96BA9510F0811E343
:10012000D890A935036AAA25E96EAB510320EA6E7F
:10013000ECCF03F0ED52EF50A7270350A823A92BD3
:10014000ECD7080EA725AC6F000EA821AD6FAD311E
:10015000036EAC31026E03320232033202320332DA
:1001600002320F0E031602C001F003C002F01200AB
:10017000640E846FA55137E0010A45E0030A47E0A9
:10018000010A55E0070A58E0010A5FE0030A63E04C
:10019000010AD8B46AD00F0AD8B46CD0010AD8B416
:1001A0006ED0030AD8B470D02A0AD8B472D0010A2B
:1001B000D8B475D0030AD8B477D0010AD8B479D0AE
:1001C000070AD8B47BD0010AD8B47DD0030AD8B4CA
:1001D0007FD0010AD8B481D00F0AD8B483D0010AE5
:1001E000D8B485D08AD0D8907035036A300FE96EC4
:1001F000000E0320EA6EECCF03F0ED52EFCF01F0DA
:1002000003C002F07FD0A66B79DF02507BD0D8907C
:100210007035036A500FE96E000E0320EA6EECCFD2
:1002200003F0ED52EFCF01F003C002F06BD0010EEE
:10023000A66F64DF025066D0928A000E80AA010E7B
:10024000036A016E03C002F05DD0036A83C001F04F
:1002500003C002F057D072C003F07151712BD8B4B3
:10026000722B016E03C002F04DD075C001F076C054
:1002700002F048D073C001F074C002F043D078C0DF
:1002800001F079C002F03ED07AC001F07BC002F0EC
:1002900039D0036A1AC001F003C002F033D01BC08A
:1002A00001F01CC002F02ED0500E016E000E026E46
:1002B00029D05A0E016E000E026E24D0500E016E2F
:1002C000000E026E1FD0030E016E000E026E1AD0D9
:1002D0001DC001F01EC002F015D020C001F021C0E9
:1002E00002F010D022C001F023C002F00BD0036A4C
:1002F00024C001F003C002F005D0036AA5C001F0DC
:1003000003C002F0D1EF01F0C950A5C0C9FFC688F3
:100310009E96C7B0FED7016AC6B8012A1200C7BAB6
:1003200003D08C6BC7B48C8F8C518C2BA36FA351D3
:1003300080082DE3A351800803E1C9CFA2F006D0C5
:10034000C69C9EA6FED7C950C688A26FA32D03D017
:10035000A2C088F01CD0A351010819E2A351800863
:1003600016E0A351020803E1A2C08BF00ED0A35106
:1003700003080BE18BC0A5F0A2C0A4F088C0A6F0D2
:100380008BC0A8F0A2C0A7F09CD67B6B7A6BA35160
:100390007F0817E288B10FD0D8908831A46FA56F7D
:1003A000E7D602C08AF001C089F08AC0A4F08AC0F2
:1003B000A5F0AADF05D089C0A4F089C0A5F0A4DF0C
:1003C000882B796B786B9E9636EF00F02320707A3D
:1003D000506F7765724932432025730D0A00313220
:1003E0002D5365702D313900700ED36E9B9C9B9EF2
:1003F000C050C00B0509C06EC08EC280140E7E6E48
:10040000C190C192C194C196000E7F6E2F0E926E64
:10041000700E936E010E946E2B0E776EF19E786ABD
:10042000846B866B020E856F879187938795726BBD
:10043000716B746B736B766B756B706B776B796BC1
:10044000786B7B6B7A6B836B2CC07EF02BC07DF05E
:1004500028C080F027C07FF0826B816B000E0609F8
:10046000CA6EF90ECB6E9D82B0EF03F0EA6A930E6E
:10047000E96EEF500EE0050E016E006A002EFED709
:10048000012EFBD72E0E006E002EFED700D0EF2ED1
:10049000F2D712009C6B9BC003F09A51D8B49B0713
:1004A0009A079D6F03C09EF09D5302E19E5330E07A
:1004B00099C003F09851E96E03C0EAFF9751036EAB
:1004C0009651962BD8B4972B9F6F03C0A0F0F2CF14
:1004D000A1F0F29E9FC0A9FFA69CA69EA680A85050
:1004E000A1BFF28EEF6E99C003F09851E96E03C080
:1004F000EAFFEFCF9DF09CC09EF09DC09FF09E5103
:100500009F19016E01C09CF0982BD8B4992BC3D7CA
:100510009CC001F0B1EF02F0960E846F500E1A6E7F
:10052000260E1C6E910E1B6E1E6A140E1D6E1F6A27
:10053000170E216E8E0E206E236A020E226E246A22
:10054000010E2F6E1200956B1A0E946F976B020EB0
:10055000966F95C099F094C098F09B6B160E9A6FA9
:1005600099D701C093F0F2CF94F0F29EA96AA69CAD
:10057000A69EA680A85094BFF28E935D01E0CCDFCA
:10058000C6EF03F0702B70510F0801E2706B100E74
:10059000016EC250C30B0110C26ED8907035036A51
:1005A000300FE96E000E0320EA6EC282C2B2FED79F
:1005B000C3CFEFFFC4CFECFF080E016EC250C30BD8
:1005C0000110C26E010E936F51DFD8907035036A2F
:1005D000500FE96E000E0320EA6EC282C2B2FED74F
:1005E000C3CFEFFFC4CFECFF12000900F6CF94F0A9
:1005F000F7CF95F0F5509EA8FED7AD6E94C0F6FFEC
:1006000095C0F7FF932FF1D7DBEF03F00900F55208
:100610000DE0F6CF93F0F7CF94F0F5509EA8FED7FB
:10062000AD6E93C0F6FF94C0F7FFF0D7E0EF03F094
:100630008795928A80BA02D0010E836F845303E1BA
:10064000949C8B9C03D0949C8B8C8407753D03D029
:10065000763D01D003D0752BD8B4762B902BD8B42F
:10066000912B9051E80835E19151030832E1916BEB
:10067000906B783D03D0793D01D003D0782BD8B46E
:10068000792B7A3D03D07B3D01D003D07A2BD8B4AF
:100690007B2B855307E1865305E194988B88949AC8
:1006A0008B8A0AD08551D8B486078507855304E123
:1006B000865302E1796B786B8D2B8D513C0809E1F3
:1006C0008D6B733D03D0743D01D003D0732BD8B430
:1006D000742B87A303D087938F6B8E6B8E2BD8B42C
:1006E0008F2B1D508E5D06E11E508F5D03E18F6BD9
:1006F0008E6B8781EDEF03F0F86AD09E078EEA6A71
:10070000E96A938C9388340EC86E360EC66EC58027
:10071000196AB886A00EAF6E010EB06EA60EAC6E52
:10072000900EAB6E030E8C6F8D6B8F6B8E6B916B1F
:10073000906B000E7E6EC190C192C194C1967F6E87
:100740006B6A6D6A896B8A6B8B6BD0500F0BD0A86C
:10075000000ED080D082D088D886D888926F44D6B8
:1007600094988B98949A8B9A926B925104080DE30B
:100770000400949C8B8CC80E936F78DE949C8B9CA9
:10078000C80E936F73DE922BF0D7DDD6C5DEF40E64
:10079000846FC00EF212926B92511D0803E3F2DED9
:1007A000922BFAD724C07CF0CC0EF66E030EF76EB7
:1007B0000D0E936F1AD7DE0EF66E030EF76E26D768
:1007C0000D0E9EA8FED7AD6E0A0E9EA8FED7AD6E8A
:1007D0009D86040087A501D02BD787A102D08791E1
:0607E000D1DEF7D7FFD7C0
:020000040030CA
:0E000000002819180000090003C003E00340A7
:00000001FF
;PIC18F14K22
;CRC=FA83  CREATED="12-Sep-19 15:58"
