:040000001AEF04F0FF
:08000800046ED8CF05F0E0CF33
:1000100006F00001E9CF0CF0EACF07F0E1CF08F0DD
:10002000E2CF09F0D9CF0AF0DACF0BF0F3CF12F01C
:10003000F4CF13F0FACF14F0F5CF15F0F6CF16F099
:10004000F7CF17F000C00EF001C00FF002C010F0A3
:1000500003C011F09DA230EF00F09EB25DEF00F002
:100060009DA636EF00F09EB6C5EF01F00EC000F081
:100070000FC001F010C002F011C003F00CC0E9FF86
:1000800007C0EAFF078E08C0E1FF09C0E2FF0AC00F
:10009000D9FF0BC0DAFF12C0F3FF13C0F4FF14C086
:1000A000FAFF15C0F5FF16C0F6FF17C0F7FF0450A2
:1000B00006C0E0FF05C0D8FF100079859E9236EF9C
:1000C00000F09851050A0DE00F0A0DE02A0A0EE033
:1000D000010A1BE0070A20E0010A3AE00F0A3DE0AE
:1000E00040D0746B3ED06C6B6B6B3BD068530CE0B4
:1000F0009A5303E19951400807E29A5305E1995157
:100100005A0802E399C01AF02CD0685304E09AC050
:100110001CF099C01BF025D0992D04D09A5302E110
:10012000798715D09951020804E19A5302E179893F
:100130000ED099510A0806E19A51070803E1010E11
:10014000686F05D0993D03D09A3D01D0FF0009D0DA
:100150009AC01EF099C01DF004D09AC020F099C03A
:100160001FF0FBEF01F09851200DF350036A210FAF
:10017000016E000E032201C09CF003C09DF09A6B3B
:10018000996B9B6B9B510F0811E3D8909B35036AC9
:100190009C25E96E9D510320EA6EECCF03F0ED52F1
:1001A000EF50992703509A239B2BECD7080E9925E3
:1001B0009E6F000E9A219F6F9F31036E9E31026EDB
:1001C0000332023203320232033202320F0E0316BE
:1001D00002C001F003C002F01200640E766F975166
:1001E00037E0010A45E0030A47E0010A55E0070A43
:1001F00058E0010A5FE0030A63E0010AD8B46AD05C
:100200000F0AD8B46CD0010AD8B46ED0030AD8B49F
:1002100070D0010AD8B472D02B0AD8B475D0010AB4
:10022000D8B478D0030AD8B47AD0010AD8B47CD034
:10023000070AD8B47ED0010AD8B480D0030AD8B453
:1002400082D0010AD8B485D00F0AD8B487D08BD019
:10025000D8906135036A210FE96E000E0320EA6E23
:10026000ECCF03F0ED52EFCF01F003C002F080D0ED
:10027000986B79DF02507CD0D8906135036A410FCA
:10028000E96E000E0320EA6EECCF03F0ED52EFCFE3
:1002900001F003C002F06CD0010E986F64DF0250D1
:1002A00067D0928A000E80AA010E036A016E03C015
:1002B00002F05ED0036A74C001F003C002F058D0AF
:1002C00063C003F06251622BD8B4632B016E03C08C
:1002D00002F04ED066C001F067C002F049D064C0A1
:1002E00001F065C002F044D069C001F06AC002F0BC
:1002F0003FD06BC001F06CC002F03AD0036A75C009
:1003000001F003C002F034D0036A1AC001F003C048
:1003100002F02ED01BC001F01CC002F029D0500EFC
:10032000016E000E026E24D05A0E016E000E026E97
:100330001FD0500E016E000E026E1AD0030E016E19
:10034000000E026E15D0036A68C001F003C002F00F
:100350000FD01DC001F01EC002F00AD01FC001F076
:1003600020C002F005D0036A97C001F003C002F07C
:1003700007EF02F0C95097C0C9FFC6889E96C7B064
:10038000FED7016AC6B8012A1200C7BA03D07E6B35
:10039000C7B47E8F7E517E2B956F955180082DE3DB
:1003A0009551800803E1C9CF94F006D0C69C9EA663
:1003B000FED7C950C688946F952D03D094C07AF0AB
:1003C0001CD09551010819E29551800816E095510D
:1003D000020803E194C07DF00ED0955103080BE1B3
:1003E0007DC097F094C096F07AC098F07DC09AF0E6
:1003F00094C099F066D66C6B6B6B95517F0817E2D1
:100400007AB10FD0D8907A31966F976FE6D602C046
:100410007CF001C07BF07CC096F07CC097F0AADF36
:1004200005D07BC096F07BC097F0A4DF7A2B6A6B77
:10043000696B9E9636EF00F02320707A506F7765D7
:10044000724932432025730D0A0031392D536570EE
:100450002D313900700ED36E9B9C9B9EC050C00BFB
:100460000509C06EC08EC280140E7E6EC190C1920E
:10047000C194C196000E7F6E2F0E926E700E936E19
:10048000010E946E2B0E776EF19E786A766B786B08
:10049000020E776F79917993799579977999636B52
:1004A000626B656B646B676B666B616B686B6A6BC9
:1004B000696B6C6B6B6B746B756B000E0609CA6EA7
:1004C000F90ECB6E9D82AEEF04F08E6B8DC003F003
:1004D0008C51D8B48D078C078F6F03C090F08F5369
:1004E00002E1905330E08BC003F08A51E96E03C003
:1004F000EAFF8951036E8851882BD8B4892B916FFC
:1005000003C092F0F2CF93F0F29E91C0A9FFA69C97
:10051000A69EA680A85093BFF28EEF6E8BC003F00C
:100520008A51E96E03C0EAFFEFCF8FF08EC091F0E1
:100530008FC092F091519219016E01C08EF08A2BFA
:10054000D8B48B2BC3D78EC001F03BEF03F08F6B79
:100550008EC003F08D51D8B48E078D07906F03C005
:1005600091F0905302E191533CE08CC003F08B5129
:10057000E96E03C0EAFFEFCF90F08FC091F090C01A
:1005800092F091519219016E01C08FF08A51036E61
:100590008951892BD8B48A2B906F03C091F08C516C
:1005A000036E8B518B2BD8B48C2BE96E03C0EAFF02
:1005B000EFCF92F0F250006EF29E90C0A9FF92C071
:1005C000A8FFA69CA69EA6840F01550EA76EAA0E94
:1005D000A76EA682A6B2FED7A6940050F212000122
:1005E000B7D78FC001F003EF03F0886B1A0E876F47
:1005F0008A6B020E896F88C08CF087C08BF08E6B7F
:10060000070E8D6FA4D701C086F0F250006EF29EE7
:10061000A96A86C0A8FFA69CA69EA6840F01550EB7
:10062000A76EAA0EA76EA682A6B2FED7A694005009
:10063000F21200011200010E756F960E766F500EC9
:100640001A6E260E1C6E910E1B6E1E6A140E1D6E07
:10065000206A050E1F6EC9DF1200876B1A0E866FA7
:10066000896B020E886F87C08BF086C08AF08D6B15
:10067000070E8C6F2AD701C085F0F2CF86F0F29E6C
:10068000A96AA69CA69EA680A85086BFF28E855D0C
:1006900001E0D1DFB3EF04F0EA6A850EE96EEF50B6
:1006A0000EE0050E016E006A002EFED7012EFBD76C
:1006B0002E0E006E002EFED700D0EF2EF2D71200C5
:1006C000612B61510F0801E2616B100E016EC25087
:1006D000C30B0110C26ED8906135036A210FE96E19
:1006E000000E0320EA6EC282C2B2FED7C3CFEFFF74
:1006F000C4CFECFF080E016EC250C30B0110C26ED6
:10070000010E856FC9DFD8906135036A410FE96E2C
:10071000000E0320EA6EC282C2B2FED7C3CFEFFF43
:10072000C4CFECFF12000900F6CF86F0F7CF87F0B8
:10073000F5509EA8FED7AD6E86C0F6FF87C0F7FFC6
:10074000852FF1D7E0EF04F00900F5520DE0F6CF68
:1007500085F0F7CF86F0F5509EA8FED7AD6E85C028
:10076000F6FF86C0F7FFF0D7E5EF04F07995928A9F
:1007700080BA02D0010E746F765303E1949C8B9C77
:1007800003D0949C8B8C7607663D03D0673D01D0E7
:1007900003D0662BD8B4672B822BD8B4832B82511D
:1007A000E80835E18351030832E1836B826B693DD0
:1007B00003D06A3D01D003D0692BD8B46A2B6B3DBE
:1007C00003D06C3D01D003D06B2BD8B46C2B775386
:1007D00007E1785305E194988B88949A8B8A0AD024
:1007E0007751D8B478077707775304E1785302E15B
:1007F0006A6B696B7F2B7F513C0809E17F6B643D1D
:1008000003D0653D01D003D0642BD8B4652B79A308
:1008100003D07993816B806B802BD8B4812B1D50D2
:10082000805D06E11E50815D03E1816B806B798103
:10083000F2EF04F0F86AD09E078EEA6AE96A938CB8
:100840009388340EC86E360EC66EC580196AB88697
:10085000A00EAF6E010EB06EA60EAC6E900EAB6E1B
:10086000030E7E6F7F6B816B806B836B826B000EE0
:100870007E6EC190C192C194C1967F6E6B6A6D6AA3
:100880001A6A1B6A1C6A1D6A1E6A1F6A206A216A2C
:10089000226A236A246A256A266A276A286A296ADC
:1008A0002A6A2B6A2C6A2D6A2E6A2F6A306A316A8C
:1008B000326A336A346A356A366A376A386A396A3C
:1008C0003A6A3B6A3C6A3D6A3E6A3F6A406A416AEC
:1008D000426A436A446A456A466A476A486A496A9C
:1008E0004A6A4B6A4C6A4D6A4E6A4F6A506A516A4C
:1008F000526A536A546A556A566A576A586A596AFC
:100900005A6A5B6A5C6A5D6A5E6A5F6A606B616BA9
:10091000626B636B646B656B666B676B686B696B53
:100920006A6B6B6B6C6B6D6B6E6B6F6B706B716B03
:10093000726B736B746B756B766B776B786B796BB3
:100940007B6B7C6B7D6BD0500F0BD0A8000ED080E2
:10095000D082D088D886D888846F7CD594988B989C
:10096000949A8B9A7AD6205203E11F50640803E2CE
:10097000206A640E1F6E846B205203E11F50845D59
:100980000DE20400949C8B8CC80E856F85DE949CD0
:100990008B9CC80E856F80DE842BEED7F40E766FAD
:1009A000C00EF212846B84511D0803E389DE842B90
:1009B000FAD7380EF66E040EF76E0D0E856FB3D6AD
:1009C0004A0EF66E040EF76EBFD60D0E9EA8FED729
:1009D000AD6E0A0E9EA8FED7AD6E9D86040079A569
:1009E00001D0C4D679A102D079916ADE79A702D06C
:1009F0007997FBDD79A902D079991DDEEFD7FFD772
:020000040030CA
:0E000000002819180000090003C003E00340A7
:00000001FF
;PIC18F14K22
;CRC=9D14  CREATED="19-Sep-19 13:16"
