:04000000E7EF04F032
:08000800046ED8CF05F0E0CF33
:1000100006F00001E9CF0CF0EACF07F0E1CF08F0DD
:10002000E2CF09F0D9CF0AF0DACF0BF0F3CF12F01C
:10003000F4CF13F0FACF14F0F5CF15F0F6CF16F099
:10004000F7CF17F000C00EF001C00FF002C010F0A3
:1000500003C011F09DA230EF00F09EB26AEF00F0F5
:100060009DA636EF00F09EB65AEF02F00EC000F0EB
:100070000FC001F010C002F011C003F00CC0E9FF86
:1000800007C0EAFF078E08C0E1FF09C0E2FF0AC00F
:10009000D9FF0BC0DAFF12C0F3FF13C0F4FF14C086
:1000A000FAFF15C0F5FF16C0F6FF17C0F7FF0450A2
:1000B00006C0E0FF05C0D8FF1000F76ACA0FF66E51
:1000C000000EF7220900F550120032302D536570F2
:1000D0002D3139007C859E9236EF00F0B751050A2C
:1000E00018E00F0A18E02A0A19E0010A26E0080AB7
:1000F0002BE0030A45E0010A48E0070A4BE0010A49
:100100004EE0030A51E0010A54E01F0AD8B456D069
:1001100059D0786B57D0836B826B54D072530CE0FC
:10012000B95303E1B851400807E2B95305E1B851AA
:100130005A0802E3B8C01AF045D0725304E0B9C0BF
:100140001CF0B8C01BF03ED0B82D04D0B95302E16A
:100150007C8715D0B851020804E1B95302E17C89CB
:100160000ED0B8510A0806E1B951070803E1010EA3
:10017000726F05D0B83D03D0B93D01D0FF0022D049
:10018000B9C01EF0B8C01DF01DD0B9C020F0B8C075
:100190001FF018D0B9C022F0B8C021F013D0B9C0F8
:1001A00024F0B8C023F00ED0B9C026F0B8C025F0B6
:1001B00009D0B9C028F0B8C027F004D0B9C02AF0DF
:1001C000B8C029F090EF02F0B751200DF350036A48
:1001D0002B0F016E000E032201C0BBF003C0BCF068
:1001E000B96BB86BBA6BBA510F0811E3D890BA3536
:1001F000036ABB25E96EBC510320EA6EECCF03F025
:10020000ED52EF50B8270350B923BA2BECD7080EA4
:10021000B825BD6F000EB921BE6FBE31036EBD3172
:10022000026E0332023203320232033202320F0E06
:10023000031602C001F003C002F01200640E7D6FCD
:10024000B651D8B45ED0010AD8B46BD0030AD8B482
:100250006CD0010AD8B479D0070AD8B47BD0010A8F
:10026000D8B481D0030AD8B484D0010AD8B48BD0D2
:100270000F0AD8B48DD0010AD8B48FD0030AD8B4ED
:1002800091D0010AD8B493D0070AD8B496D0020A04
:10029000D8B498D0010AD8B49BD02F0AD8B49ED035
:1002A000010AD8B4A1D0030AD8B4A3D0010AD8B4A3
:1002B000A5D0070AD8B4A7D0010AD8B4A9D0030A98
:1002C000D8B4ABD0010AD8B4AED00F0AD8B4B1D0EC
:1002D000010AD8B4B4D0030AD8B4B7D0010AD8B44C
:1002E000B9D0070AD8B4BBD0010AD8B4BDD0030A2C
:1002F000D8B4BFD0010AD8B4C1D01F0AD8B4C3D073
:10030000C7D0D8906B35036A2B0FE96E000E03201F
:10031000EA6EECCF03F0ED52EFCF01F003C002F034
:10032000BCD0B76B51DF0250B8D0D8906B35036AA0
:100330004B0FE96E000E0320EA6EECCF03F0ED5296
:10034000EFCF01F003C002F0A8D0010EB76F3CDF81
:100350000250A3D0928A000E80AA010E036A016E99
:1003600003C002F09AD0036A78C001F003C002F023
:1003700094D06DC003F06C516C2BD8B46D2B016E12
:1003800003C002F08AD070C001F071C002F085D0C5
:100390006EC001F06FC002F080D07EC001F07FC05F
:1003A00002F07BD082C001F083C002F076D0036AF5
:1003B00079C001F003C002F070D07AC001F07BC0B8
:1003C00002F06BD0036A76C001F003C002F065D082
:1003D000036A77C001F003C002F05FD0036A1AC05D
:1003E00001F003C002F059D01BC001F01CC002F0A4
:1003F00054D0500E016E000E026E4FD05A0E016E98
:10040000000E026E4AD0500E016E000E026E45D0F4
:10041000030E016E000E026E40D0036A73C001F03D
:1004200003C002F03AD0036A74C001F003C002F0C6
:1004300034D0036A75C001F003C002F02ED0036A05
:1004400072C001F003C002F028D01DC001F01EC030
:1004500002F023D01FC001F020C002F01ED021C046
:1004600001F022C002F019D023C001F024C002F034
:1004700014D025C001F026C002F00FD027C001F033
:1004800028C002F00AD029C001F02AC002F005D02D
:10049000036AB6C001F003C002F09AEF02F0C9503F
:1004A000B6C0C9FFC6889E96C7B0FED7016AC6B857
:1004B000012A1200C7BA03D08A6BC7B48A8F8A5147
:1004C0008A2BB46FB45180082BE3B451800803E148
:1004D000C9CFB3F006D0C69C9EA6FED7C950C68829
:1004E000B36FB42D03D0B3C086F01AD0B451010855
:1004F00017E2B451800814E0B451020803E1B3C01C
:1005000089F00ED0B45103080BE189C0B6F0B3C036
:10051000B5F086C0B7F089C0B9F0B3C0B8F0DED589
:10052000B4517F0817E286B10FD0D8908631B56FED
:10053000B66F84D602C088F001C087F088C0B5F0DD
:1005400088C0B6F0ACDF05D087C0B5F087C0B6F084
:10055000A6DF862B7F6B7E6B9E9636EF00F0700ECB
:10056000D36E9B9C9B9EC050C00B0509C06EC08E75
:10057000C280140E7E6EC190C192C194C196000ECD
:100580007F6E2F0E926E700E936E010E946E2B0E78
:10059000776EF19E786AEA6A910EE96E000E8DDD43
:1005A0000A000900F550EE6E0009FBE1300E915D86
:1005B0000A0DF3CF75F0300E925D752794514A08FD
:1005C0000FE19551410803E1010E746F08D0965177
:1005D0004E0803E1060E746F02D0070E746F37D019
:1005E0009451410809E19551500803E1040E746FDC
:1005F00002D0080E746F2BD094514D0809E196512A
:10060000520803E1030E746F02D0050E746F1FD001
:100610009451460803E1020E746F19D094515308A7
:1006200003E1090E746F13D094514F0803E10A0ED1
:10063000746F0DD094514E0803E10B0E746F07D008
:100640009451440803E10C0E746F01D07469300EAC
:10065000985D0A0DF3CF73F0300E995D7327000E8D
:100660000609CA6EF90ECB6E9D827DEF05F09A6B7E
:1006700099C003F09851D8B4990798079B6F03C0AD
:100680009CF09B5302E19C5330E097C003F09651DD
:10069000E96E03C0EAFF9551036E9451942BD8B4D0
:1006A000952B9D6F03C09EF0F2CF9FF0F29E9DC0F0
:1006B000A9FFA69CA69EA680A8509FBFF28EEF6EB3
:1006C00097C003F09651E96E03C0EAFFEFCF9BF0AD
:1006D0009AC09DF09BC09EF09D519E19016E01C075
:1006E0009AF0962BD8B4972BC3D79AC001F018EF85
:1006F00004F09B6B9AC003F09951D8B49A079907FC
:100700009C6F03C09DF09C5302E19D533CE098C058
:1007100003F09751E96E03C0EAFFEFCF9CF09BC056
:100720009DF09CC09EF09D519E19016E01C09BF0F2
:100730009651036E9551952BD8B4962B9C6F03C0A0
:100740009DF09851036E9751972BD8B4982BE96E72
:1007500003C0EAFFEFCF9EF0F250006EF29E9CC005
:10076000A9FF9EC0A8FFA69CA69EA6840F01550EB9
:10077000A76EAA0EA76EA682A6B2FED7A6940050B8
:10078000F2120001B7D79BC001F0D5EF03F0946BD4
:100790001A0E936F966B020E956F94C098F093C0EB
:1007A00097F09A6B110E996FA4D701C092F0F25096
:1007B000006EF29EA96A92C0A8FFA69CA69EA6847F
:1007C0000F01550EA76EAA0EA76EA682A6B2FED77F
:1007D000A6940050F21200011200010E796F960EDD
:1007E0007D6F500E1A6E260E1C6E910E1B6E1E6AC9
:1007F000140E1D6E206A050E1F6E226A020E216EF7
:1008000024682368266A256E286827682A6A296E64
:10081000BEDF1200936B1A0E926F956B020E946FEF
:1008200093C097F092C096F0996B110E986F1FD7F6
:1008300001C091F0F2CF92F0F29EA96AA69CA69E0A
:10084000A680A85092BFF28E915D01E0C6DF82EFD4
:1008500005F0EA6A910EE96EEF500EE0050E016EAA
:10086000006A002EFED7012EFBD72E0E006E002E42
:10087000FED700D0EF2EF2D712006B2B6B510F0872
:1008800001E26B6B100E016EC250C30B0110C26E01
:10089000D8906B35036A2B0FE96E000E0320EA6EC9
:1008A000C282C2B2FED7C3CFEFFFC4CFECFF080EA7
:1008B000016EC250C30B0110C26E010E916FC9DFF1
:1008C000D8906B35036A4B0FE96E000E0320EA6E79
:1008D000C282C2B2FED7C3CFEFFFC4CFECFF12007B
:1008E0007C95928A80BA02D0010E786F7D5303E125
:1008F000949C8B9C03D0949C8B8C7D07703D03D083
:10090000713D01D003D0702BD8B4712B8E2BD8B48D
:100910008F2B8E51E80848E18F51030845E18F6B1A
:100920008E6B7E3D03D07F3D01D003D07E2BD8B4AB
:100930007F2B823D03D0833D01D003D0822BD8B4DE
:10094000832B2850835D17E303E18251275C13E278
:1009500076B506D076852AC085F029C084F00AD005
:10096000845304E1855302E1769504D08451D8B4D0
:100970008507840701D07695765305E094988B9887
:10098000949A8B9A04D094988B88949A8B8A8B2B08
:100990008B513C0809E18B6B6E3D03D06F3D01D05C
:1009A00003D06E2BD8B46F2B7CA303D07C938D6BBC
:1009B0008C6B8C2BD8B48D2B1D508C5D06E11E509A
:1009C0008D5D03E18D6B8C6B7C81ADEF05F0F86A7A
:1009D000D09E078EEA6AE96A938C9388340EC86EBB
:1009E000360EC66EC580196AB886A00EAF6E010EAF
:1009F000B06EA60EAC6E900EAB6E030E8A6F8B6B54
:100A00008D6B8C6B8F6B8E6B000E7E6EC190C19266
:100A1000C194C1967F6E6B6A6D6A1A6A1B6A1C6A02
:100A20001D6A1E6A1F6A206A216A226A236A246A72
:100A3000256A266A276A286A296A2A6A2B6A2C6A22
:100A40002D6A2E6A2F6A306A316A326A336A346AD2
:100A5000356A366A376A386A396A3A6A3B6A3C6A82
:100A60003D6A3E6A3F6A406A416A426A436A446A32
:100A7000456A466A476A486A496A4A6A4B6A4C6AE2
:100A80004D6A4E6A4F6A506A516A526A536A546A92
:100A9000556A566A576A586A596A5A6A5B6A5C6A42
:100AA0005D6A5E6A5F6A606B616B626B636B646BED
:100AB000656B666B676B686B696B6A6B6B6B6C6B9A
:100AC0006D6B6E6B6F6B706B716B726B736B746B4A
:100AD000756B766B776B786B796B7A6B7B6B7C6BFA
:100AE0007D6B7E6B7F6B806B816B826B836B846BAA
:100AF000856B876B886B896B32D594988B98949AA9
:100B00008B9A88D6205203E11F50640803E2206AC2
:100B1000640E1F6E906B205203E11F50905D0DE23A
:100B20000400949C8B8CC80E916F93DE949C8B9CDC
:100B3000C80E916F8EDE902BEED7F40E7D6FC00E37
:100B4000F212906B90511D0803E397DE902BFAD7B9
:100B50009D8604007CA501D0C3D67CA102D07C91E7
:100B60008CDE7CA702D07C9712DE7CA902D07C9917
:060B700034DEEFD7FFD7D1
:0200000400F00A
:080000000000000040000000B8
:020000040030CA
:0E000000002819180000090003C003E00340A7
:00000001FF
;PIC18F14K22
;CRC=C150  CREATED="20-Sep-19 10:21"
