:0400000036EF05F0E2
:08000800046ED8CF05F0E0CF33
:1000100006F00001E9CF0CF0EACF07F0E1CF08F0DD
:10002000E2CF09F0D9CF0AF0DACF0BF0F3CF12F01C
:10003000F4CF13F0FACF14F0F5CF15F0F6CF16F099
:10004000F7CF17F000C00EF001C00FF002C010F0A3
:1000500003C011F09DA230EF00F09EB26AEF00F0F5
:100060009DA636EF00F09EB664EF02F00EC000F0E1
:100070000FC001F010C002F011C003F00CC0E9FF86
:1000800007C0EAFF078E08C0E1FF09C0E2FF0AC00F
:10009000D9FF0BC0DAFF12C0F3FF13C0F4FF14C086
:1000A000FAFF15C0F5FF16C0F6FF17C0F7FF0450A2
:1000B00006C0E0FF05C0D8FF1000F76ACA0FF66E51
:1000C000000EF7220900F550120032302D536570F2
:1000D0002D3139007A859E9236EF00F0B951050A2C
:1000E0001DE00F0A1DE0060A1EE02C0A21E0010AAD
:1000F0002EE0080A33E0030A4DE0010A50E0070A47
:1001000053E0010AD8B455D0030AD8B457D0010A35
:10011000D8B459D01F0AD8B45BD05ED0786B5CD00D
:10012000856B846B59D0BBC07DF0BAC07CF054D0D5
:1001300072530CE0BB5303E1BA51400807E2BB53D2
:1001400005E1BA515A0802E3BAC01AF045D0725319
:1001500004E0BBC01CF0BAC01BF03ED0BA2D04D0E6
:10016000BB5302E17A8715D0BA51020804E1BB53B0
:1001700002E17A890ED0BA510A0806E1BB5107089C
:1001800003E1010E726F05D0BA3D03D0BB3D01D033
:10019000FF0022D0BBC01EF0BAC01DF01DD0BBC0F6
:1001A00020F0BAC01FF018D0BBC022F0BAC021F0B6
:1001B00013D0BBC024F0BAC023F00ED0BBC026F0D1
:1001C000BAC025F009D0BBC028F0BAC027F004D0CF
:1001D000BBC02AF0BAC029F09AEF02F0B951200D45
:1001E000F350036A2B0F016E000E032201C0BDF015
:1001F00003C0BEF0BB6BBA6BBC6BBC510F0811E304
:10020000D890BC35036ABD25E96EBE510320EA6E65
:10021000ECCF03F0ED52EF50BA270350BB23BC2BB9
:10022000ECD7080EBA25BF6F000EBB21C06FC031DE
:10023000036EBF31026E03320232033202320332E6
:1002400002320F0E031602C001F003C002F01200CA
:10025000640E7B6FB851D8B45ED0010AD8B46BD0AD
:10026000030AD8B46CD0010AD8B479D0070AD8B43C
:100270007BD0010AD8B481D0030AD8B484D0010A53
:10028000D8B48BD00F0AD8B48DD0010AD8B48FD08F
:10029000030AD8B491D0010AD8B493D0070AD8B4CD
:1002A00096D0020AD8B498D0010AD8B49BD02F0AAD
:1002B000D8B49ED0010AD8B4A1D0030AD8B4A3D030
:1002C000010AD8B4A5D0070AD8B4A7D0010AD8B477
:1002D000A9D0030AD8B4ABD0010AD8B4AED00F0A63
:1002E000D8B4B1D0010AD8B4B4D0030AD8B4B7D0C6
:1002F000010AD8B4B9D0070AD8B4BBD0010AD8B41F
:10030000BDD0030AD8B4BFD0010AD8B4C1D01F0AE7
:10031000D8B4C3D0C7D0D8906B35036A2B0FE96E21
:10032000000E0320EA6EECCF03F0ED52EFCF01F0A8
:1003300003C002F0BCD0B96B51DF0250B8D0D890E6
:100340006B35036A4B0FE96E000E0320EA6EECCFAB
:1003500003F0ED52EFCF01F003C002F0A8D0010E80
:10036000B96F3CDF0250A3D0928A000E80AA010E22
:10037000036A016E03C002F09AD0036A78C001F0EC
:1003800003C002F094D06DC003F06C516C2BD8B454
:100390006D2B016E03C002F08AD070C001F071C0F5
:1003A00002F085D06EC001F06FC002F080D080C036
:1003B00001F081C002F07BD084C001F085C002F062
:1003C00076D0036A79C001F003C002F070D07CC01F
:1003D00001F07DC002F06BD0036A76C001F003C06B
:1003E00002F065D0036A77C001F003C002F05FD06D
:1003F000036A1AC001F003C002F059D01BC001F01B
:100400001CC002F054D0500E016E000E026E4FD090
:100410005A0E016E000E026E4AD0500E016E000E92
:10042000026E45D0030E016E000E026E40D0036ACC
:1004300073C001F003C002F03AD0036A74C001F047
:1004400003C002F034D0036A75C001F003C002F0AB
:100450002ED0036A72C001F003C002F028D01DC084
:1004600001F01EC002F023D01FC001F020C002F036
:100470001ED021C001F022C002F019D023C001F02B
:1004800024C002F014D025C001F026C002F00FD025
:1004900027C001F028C002F00AD029C001F02AC00C
:1004A00002F005D0036AB8C001F003C002F0A4EF67
:1004B00002F0C950B8C0C9FFC6889E96C7B0FED723
:1004C000016AC6B8012A1200C7BA03D08C6BC7B440
:1004D0008C8F8C518C2BB66FB65180082BE3B651A4
:1004E000800803E1C9CFB5F006D0C69C9EA6FED712
:1004F000C950C688B56FB62D03D0B5C088F01AD0E4
:10050000B651010817E2B651800814E0B65102084E
:1005100003E1B5C08BF00ED0B65103080BE18BC0E0
:10052000B8F0B5C0B7F088C0B9F08BC0BBF0B5C0AB
:10053000BAF0D4D5B6517F0817E288B10FD0D89061
:100540008831B76FB86F84D602C08AF001C089F0D5
:100550008AC0B7F08AC0B8F0ACDF05D089C0B7F068
:1005600089C0B8F0A6DF882B816B806B9E9636EF32
:1005700000F0700ED36E9B9C9B9EC050C00B050973
:10058000C06EC08EC280140E7E6EC190C192C194A6
:10059000C196000E7F6E2F0E926E700E936E010E3E
:1005A000946E2B0E776EF19E786A7D697C69EA6A9B
:1005B000930EE96E000E81DD0A000900F550EE6E23
:1005C0000009FBE1300E935D0A0DF3CF75F0300E9C
:1005D000945D752796514A080FE19751410803E150
:1005E000010E746F08D098514E0803E1060E746F27
:1005F00002D0070E746F37D09651410809E1975128
:10060000500803E1040E746F02D0080E746F2BD0F3
:1006100096514D0809E19851520803E1030E746F99
:1006200002D0050E746F1FD09651460803E1020EEA
:10063000746F19D09651530803E1090E746F13D0EB
:1006400096514F0803E10A0E746F0DD096514E0873
:1006500003E10B0E746F07D09651440803E10C0EB2
:10066000746F01D07469300E9A5D0A0DF3CF73F088
:10067000300E9B5D7327000E0609CA6EF90ECB6E15
:100680009D82CEEF05F09C6B9BC003F09A51D8B4CD
:100690009B079A079D6F03C09EF09D5302E19E53F6
:1006A00030E099C003F09851E96E03C0EAFF97511A
:1006B000036E9651962BD8B4972B9F6F03C0A0F072
:1006C000F2CFA1F0F29E9FC0A9FFA69CA69EA68095
:1006D000A850A1BFF28EEF6E99C003F09851E96E59
:1006E00003C0EAFFEFCF9DF09CC09FF09DC0A0F03B
:1006F0009F51A019016E01C09CF0982BD8B4992B82
:10070000C3D79CC001F024EF04F09D6B9CC003F0A4
:100710009B51D8B49C079B079E6F03C09FF09E53CC
:1007200002E19F533CE09AC003F09951E96E03C087
:10073000EAFFEFCF9EF09DC09FF09EC0A0F09F51BA
:10074000A019016E01C09DF09851036E9751972B2F
:10075000D8B4982B9E6F03C09FF09A51036E9951A5
:10076000992BD8B49A2BE96E03C0EAFFEFCFA0F023
:10077000F250006EF29E9EC0A9FFA0C0A8FFA69CEA
:10078000A69EA6840F01550EA76EAA0EA76EA6827E
:10079000A6B2FED7A6940050F2120001B7D79DC0B2
:1007A00001F0E1EF03F0966B1A0E956F986B020E55
:1007B000976F96C09AF095C099F09C6B110E9B6F45
:1007C000A4D701C094F0F250006EF29EA96A94C0C2
:1007D000A8FFA69CA69EA6840F01550EA76EAA0E82
:1007E000A76EA682A6B2FED7A6940050F212000110
:1007F0001200010E796F960E7B6F500E1A6E260E48
:100800001C6E910E1B6E1E6A140E1D6E206A050E64
:100810001F6E226A020E216E24682368266A256EE6
:10082000286827682A6A296EBEDF1200956B1A0EA7
:10083000946F976B020E966F95C099F094C098F0E4
:100840009B6B110E9A6F1FD701C093F0F2CF94F0FB
:10085000F29EA96AA69CA69EA680A85094BFF28E7E
:10086000935D01E0C6DFD3EF05F0EA6A930EE96E0F
:10087000EF500EE0050E016E006A002EFED7012E2D
:10088000FBD72E0E006E002EFED700D0EF2EF2D733
:1008900012006B2B6B510F0801E26B6B100E016E97
:1008A000C250C30B0110C26ED8906B35036A2B0F78
:1008B000E96E000E0320EA6EC282C2B2FED7C3CF39
:1008C000EFFFC4CFECFF080E016EC250C30B011046
:1008D000C26E010E936FC9DFD8906B35036A4B0F60
:1008E000E96E000E0320EA6EC282C2B2FED7C3CF09
:1008F000EFFFC4CFECFF12007A95928A80BA02D043
:10090000010E786F7B5303E1949C8B9C03D0949CE5
:100910008B8C7B07703D03D0713D01D003D0702BD1
:10092000D8B4712B902BD8B4912B9051E808D8A44F
:100930008AD091510308D8A486D0916B906B7C3DEE
:1009400003D07D3D01D01DD07C5302E17D5305E0F5
:100950007C51D8B47D077C0714D076B106D076815F
:1009600022C07FF021C07EF00CD07E5306E17F5381
:1009700004E176917D697C6904D07E51D8B47F070B
:100980007E07803D03D0813D01D003D0802BD8B4B9
:10099000812B843D03D0853D01D003D0842BD8B476
:1009A000852B2450815D19E303E18051235C15E21E
:1009B00076B306D0768326C083F025C082F00CD0B3
:1009C000825306E1835304E17693816B806B04D0FC
:1009D0008251D8B48307820701D076932850855D71
:1009E00019E303E18451275C15E276B506D07685DC
:1009F0002AC087F029C086F00CD0865306E18753C1
:100A000004E17695856B846B04D08651D8B4870752
:100A1000860701D07695765305E094988B98949A42
:100A20008B9A04D094988B88949A8B8A8D2B8D51B5
:100A30003C0809E18D6B6E3D03D06F3D01D003D0C2
:100A40006E2BD8B46F2B7AA303D07A938F6B8E6BF7
:100A50008E2BD8B48F2B1D508E5D06E11E508F5DFE
:100A600003E18F6B8E6B7A81FEEF05F0F86AD09E02
:100A7000078EEA6AE96A938C9388340EC86E360E44
:100A8000C66EC580196AB886A00EAF6E010EB06E34
:100A9000A60EAC6E900EAB6E030E8C6F8D6B8F6BD3
:100AA0008E6B916B906B000E7E6EC190C192C19463
:100AB000C1967F6E6B6A6D6A1A6A1B6A1C6A1D6A30
:100AC0001E6A1F6A206A216A226A236A246A256ACA
:100AD000266A276A286A296A2A6A2B6A2C6A2D6A7A
:100AE0002E6A2F6A306A316A326A336A346A356A2A
:100AF000366A376A386A396A3A6A3B6A3C6A3D6ADA
:100B00003E6A3F6A406A416A426A436A446A456A89
:100B1000466A476A486A496A4A6A4B6A4C6A4D6A39
:100B20004E6A4F6A506A516A526A536A546A556AE9
:100B3000566A576A586A596A5A6A5B6A5C6A5D6A99
:100B40005E6A5F6A606B616B626B636B646B656B43
:100B5000666B676B686B696B6A6B6B6B6C6B6D6BF1
:100B60006E6B6F6B706B716B726B736B746B756BA1
:100B7000766B776B786B796B7A6B7B6B7C6B7D6B51
:100B80007E6B7F6B806B816B826B836B846B856B01
:100B9000866B876B896B8A6B8B6BEBD494988B9885
:100BA000949A8B9A43D6205203E11F50640803E2C3
:100BB000206A640E1F6E926B205203E11F50925DFB
:100BC0000DE20400949C8B8CC80E936F4EDE949CB7
:100BD0008B9CC80E936F49DE922BEED7F40E7B6F81
:100BE000C00EF212926B92511D0803E352DE922B5B
:100BF000FAD79D8604007AA501D07ED67AA102D0CC
:100C00007A9147DE7AA702D07A97CDDD7AA902D011
:080C10007A99EFDDEFD7FFD761
:0200000400F00A
:080000000000000040000000B8
:020000040030CA
:0E000000002819180000090003C003E00340A7
:00000001FF
;PIC18F14K22
;CRC=A807  CREATED="20-Sep-19 11:29"
